{"contracts/Verifier.sol":{"Groth16Verifier":{"abi":[{"inputs":[{"internalType":"uint256[2]","name":"_pA","type":"uint256[2]"},{"internalType":"uint256[2][2]","name":"_pB","type":"uint256[2][2]"},{"internalType":"uint256[2]","name":"_pC","type":"uint256[2]"},{"internalType":"uint256[4]","name":"_pubSignals","type":"uint256[4]"}],"name":"verifyProof","outputs":[{"internalType":"bool","name":"","type":"bool"}],"stateMutability":"view","type":"function"}],"evm":{"bytecode":{"linkReferences":{},"object":"608060405234801561001057600080fd5b50610679806100206000396000f3fe608060405234801561001057600080fd5b506004361061002b5760003560e01c80635fe8c13b14610030575b600080fd5b61004361003e3660046105e9565b610057565b604051901515815260200160405180910390f35b6000610569565b7f30644e72e131a029b85045b68181585d2833e84879b9709143e1f593f0000001811061008f576000805260206000f35b50565b600060405183815284602082015285604082015260408160608360076107d05a03fa9150816100c5576000805260206000f35b825160408201526020830151606082015260408360808360066107d05a03fa915050806100f6576000805260206000f35b5050505050565b7f1caf1e00e80362ccefefc6b388e6e055a559a0cc66b7e852b1034f9abc8b0c4b85527f106d7c1a04a50dade6c255649a4f96e09d0f162cfe8d6c61a2824e7fea927c6760208601526000608086018661019a87357f16f6d62f0f742d7d4daf72598ba217c4392b1890551c712ec38b66691de22ce47f1ca83c2ce0671ea5108cd247e5ff98a327c47d8bd2a8b48c88fcd33940b7ca5f84610092565b6101ea60208801357f056843e9f08639a9030d482929b576fb7b29eadc013e0b325c86f218a5dc58387f1d79b21dd9c8dfbb9e062256f80acc85d62220b15bcdd3ee9bccfdd0854f3b0384610092565b61023a60408801357f0243582520f435430fbdb8d58fed31d1819b965a09b32459df8e3cb79f1795ac7f2e4b41c1c650d3d2ff87ef2626df73b78296a68aac8a0f3e1384613ac8e2375b84610092565b61028a60608801357f1379f8f623fe05a9190d584163ddd1472ab89870045e657215548450d60084927f0874cb7852fbc3588f51ae6b3410ec9b9dc51214ef5801623bf947f55da4d7b084610092565b50823581527f30644e72e131a029b85045b68181585d97816a916871ca8d3c208c16d87cfd4760208401357f30644e72e131a029b85045b68181585d97816a916871ca8d3c208c16d87cfd4703066020820152833560408201526020840135606082015260408401356080820152606084013560a08201527f2633f96b4f3429759c7d37a56aa394eea131f39cee6f54f24b8ef3e7722dac1360c08201527f040b2607e49d3fdba5c5d870a7631eb89bf36c0222467f6de233805ee1430c9160e08201527eb3778a8856270e498219b252c4c1608c49720224166114a5b3dbf5dfb48dee6101008201527f28b803d37cdfc4621be514205b915f4f9faa5f15c007629e9e61736cb4d9f6266101208201527f07e257cfc5126b84263cf068e9cb32cd48c1c47ec3f7678fa17343208881e3fa6101408201527f12e42bc3de0be3beb67e52805baf7224ccc8f626976f1080656826ddada00556610160820152600087015161018082015260206000018701516101a08201527f198e9393920d483a7260bfb731fb5d25f1aa493335a9e71297e485b7aef312c26101c08201527f1800deef121f1e76426a00665e5c4479674322d4f75edadd46debd5cd992f6ed6101e08201527f090689d0585ff075ec9e99ad690c3395bc4b313370b38ef355acdadcd122975b6102008201527f12c85ea5db8c6deb4aab71808dcb408fe3d1e7690c43d37b4ce6cc0166fa7daa610220820152843561024082015260208501356102608201527f0263610046274ed09344fccfafd97cce26ce42fb08ab38792aa4b0934cb3aff06102808201527f1379e263876ac6041a8af8e7aa2795bba4212ced733efd37c61c2c7a86a71fe06102a08201527f2fbbf10aeec49a28f4bbbc2685f38f5a97ee43314bc50a0e8dd9025f49781c696102c08201527f2cb8e729808f59f455744a581761fc5cc5132d7a5ef90d5d284f0c29f7943cb06102e08201526020816103008360086107d05a03fa9051169695505050505050565b6040516103808101604052610581600084013561005e565b61058e602084013561005e565b61059b604084013561005e565b6105a8606084013561005e565b6105b5818486888a6100fd565b90508060005260206000f35b80604081018310156105d257600080fd5b92915050565b80608081018310156105d257600080fd5b600080600080610180858703121561060057600080fd5b61060a86866105c1565b935061061986604087016105d8565b92506106288660c087016105c1565b91506106388661010087016105d8565b90509295919450925056fea264697066735822122074489e9e6e94f31a7f2a416a7455ebdafe3c18010e3d31d2a35f89dbd5b89fdc64736f6c63430008140033","opcodes":"PUSH1 0x80 PUSH1 0x40 MSTORE CALLVALUE DUP1 ISZERO PUSH2 0x10 JUMPI PUSH1 0x0 DUP1 REVERT JUMPDEST POP PUSH2 0x679 DUP1 PUSH2 0x20 PUSH1 0x0 CODECOPY PUSH1 0x0 RETURN INVALID PUSH1 0x80 PUSH1 0x40 MSTORE CALLVALUE DUP1 ISZERO PUSH2 0x10 JUMPI PUSH1 0x0 DUP1 REVERT JUMPDEST POP PUSH1 0x4 CALLDATASIZE LT PUSH2 0x2B JUMPI PUSH1 0x0 CALLDATALOAD PUSH1 0xE0 SHR DUP1 PUSH4 0x5FE8C13B EQ PUSH2 0x30 JUMPI JUMPDEST PUSH1 0x0 DUP1 REVERT JUMPDEST PUSH2 0x43 PUSH2 0x3E CALLDATASIZE PUSH1 0x4 PUSH2 0x5E9 JUMP JUMPDEST PUSH2 0x57 JUMP JUMPDEST PUSH1 0x40 MLOAD SWAP1 ISZERO ISZERO DUP2 MSTORE PUSH1 0x20 ADD PUSH1 0x40 MLOAD DUP1 SWAP2 SUB SWAP1 RETURN JUMPDEST PUSH1 0x0 PUSH2 0x569 JUMP JUMPDEST PUSH32 0x30644E72E131A029B85045B68181585D2833E84879B9709143E1F593F0000001 DUP2 LT PUSH2 0x8F JUMPI PUSH1 0x0 DUP1 MSTORE PUSH1 0x20 PUSH1 0x0 RETURN JUMPDEST POP JUMP JUMPDEST PUSH1 0x0 PUSH1 0x40 MLOAD DUP4 DUP2 MSTORE DUP5 PUSH1 0x20 DUP3 ADD MSTORE DUP6 PUSH1 0x40 DUP3 ADD MSTORE PUSH1 0x40 DUP2 PUSH1 0x60 DUP4 PUSH1 0x7 PUSH2 0x7D0 GAS SUB STATICCALL SWAP2 POP DUP2 PUSH2 0xC5 JUMPI PUSH1 0x0 DUP1 MSTORE PUSH1 0x20 PUSH1 0x0 RETURN JUMPDEST DUP3 MLOAD PUSH1 0x40 DUP3 ADD MSTORE PUSH1 0x20 DUP4 ADD MLOAD PUSH1 0x60 DUP3 ADD MSTORE PUSH1 0x40 DUP4 PUSH1 0x80 DUP4 PUSH1 0x6 PUSH2 0x7D0 GAS SUB STATICCALL SWAP2 POP POP DUP1 PUSH2 0xF6 JUMPI PUSH1 0x0 DUP1 MSTORE PUSH1 0x20 PUSH1 0x0 RETURN JUMPDEST POP POP POP POP POP JUMP JUMPDEST PUSH32 0x1CAF1E00E80362CCEFEFC6B388E6E055A559A0CC66B7E852B1034F9ABC8B0C4B DUP6 MSTORE PUSH32 0x106D7C1A04A50DADE6C255649A4F96E09D0F162CFE8D6C61A2824E7FEA927C67 PUSH1 0x20 DUP7 ADD MSTORE PUSH1 0x0 PUSH1 0x80 DUP7 ADD DUP7 PUSH2 0x19A DUP8 CALLDATALOAD PUSH32 0x16F6D62F0F742D7D4DAF72598BA217C4392B1890551C712EC38B66691DE22CE4 PUSH32 0x1CA83C2CE0671EA5108CD247E5FF98A327C47D8BD2A8B48C88FCD33940B7CA5F DUP5 PUSH2 0x92 JUMP JUMPDEST PUSH2 0x1EA PUSH1 0x20 DUP9 ADD CALLDATALOAD PUSH32 0x56843E9F08639A9030D482929B576FB7B29EADC013E0B325C86F218A5DC5838 PUSH32 0x1D79B21DD9C8DFBB9E062256F80ACC85D62220B15BCDD3EE9BCCFDD0854F3B03 DUP5 PUSH2 0x92 JUMP JUMPDEST PUSH2 0x23A PUSH1 0x40 DUP9 ADD CALLDATALOAD PUSH32 0x243582520F435430FBDB8D58FED31D1819B965A09B32459DF8E3CB79F1795AC PUSH32 0x2E4B41C1C650D3D2FF87EF2626DF73B78296A68AAC8A0F3E1384613AC8E2375B DUP5 PUSH2 0x92 JUMP JUMPDEST PUSH2 0x28A PUSH1 0x60 DUP9 ADD CALLDATALOAD PUSH32 0x1379F8F623FE05A9190D584163DDD1472AB89870045E657215548450D6008492 PUSH32 0x874CB7852FBC3588F51AE6B3410EC9B9DC51214EF5801623BF947F55DA4D7B0 DUP5 PUSH2 0x92 JUMP JUMPDEST POP DUP3 CALLDATALOAD DUP2 MSTORE PUSH32 0x30644E72E131A029B85045B68181585D97816A916871CA8D3C208C16D87CFD47 PUSH1 0x20 DUP5 ADD CALLDATALOAD PUSH32 0x30644E72E131A029B85045B68181585D97816A916871CA8D3C208C16D87CFD47 SUB MOD PUSH1 0x20 DUP3 ADD MSTORE DUP4 CALLDATALOAD PUSH1 0x40 DUP3 ADD MSTORE PUSH1 0x20 DUP5 ADD CALLDATALOAD PUSH1 0x60 DUP3 ADD MSTORE PUSH1 0x40 DUP5 ADD CALLDATALOAD PUSH1 0x80 DUP3 ADD MSTORE PUSH1 0x60 DUP5 ADD CALLDATALOAD PUSH1 0xA0 DUP3 ADD MSTORE PUSH32 0x2633F96B4F3429759C7D37A56AA394EEA131F39CEE6F54F24B8EF3E7722DAC13 PUSH1 0xC0 DUP3 ADD MSTORE PUSH32 0x40B2607E49D3FDBA5C5D870A7631EB89BF36C0222467F6DE233805EE1430C91 PUSH1 0xE0 DUP3 ADD MSTORE PUSH31 0xB3778A8856270E498219B252C4C1608C49720224166114A5B3DBF5DFB48DEE PUSH2 0x100 DUP3 ADD MSTORE PUSH32 0x28B803D37CDFC4621BE514205B915F4F9FAA5F15C007629E9E61736CB4D9F626 PUSH2 0x120 DUP3 ADD MSTORE PUSH32 0x7E257CFC5126B84263CF068E9CB32CD48C1C47EC3F7678FA17343208881E3FA PUSH2 0x140 DUP3 ADD MSTORE PUSH32 0x12E42BC3DE0BE3BEB67E52805BAF7224CCC8F626976F1080656826DDADA00556 PUSH2 0x160 DUP3 ADD MSTORE PUSH1 0x0 DUP8 ADD MLOAD PUSH2 0x180 DUP3 ADD MSTORE PUSH1 0x20 PUSH1 0x0 ADD DUP8 ADD MLOAD PUSH2 0x1A0 DUP3 ADD MSTORE PUSH32 0x198E9393920D483A7260BFB731FB5D25F1AA493335A9E71297E485B7AEF312C2 PUSH2 0x1C0 DUP3 ADD MSTORE PUSH32 0x1800DEEF121F1E76426A00665E5C4479674322D4F75EDADD46DEBD5CD992F6ED PUSH2 0x1E0 DUP3 ADD MSTORE PUSH32 0x90689D0585FF075EC9E99AD690C3395BC4B313370B38EF355ACDADCD122975B PUSH2 0x200 DUP3 ADD MSTORE PUSH32 0x12C85EA5DB8C6DEB4AAB71808DCB408FE3D1E7690C43D37B4CE6CC0166FA7DAA PUSH2 0x220 DUP3 ADD MSTORE DUP5 CALLDATALOAD PUSH2 0x240 DUP3 ADD MSTORE PUSH1 0x20 DUP6 ADD CALLDATALOAD PUSH2 0x260 DUP3 ADD MSTORE PUSH32 0x263610046274ED09344FCCFAFD97CCE26CE42FB08AB38792AA4B0934CB3AFF0 PUSH2 0x280 DUP3 ADD MSTORE PUSH32 0x1379E263876AC6041A8AF8E7AA2795BBA4212CED733EFD37C61C2C7A86A71FE0 PUSH2 0x2A0 DUP3 ADD MSTORE PUSH32 0x2FBBF10AEEC49A28F4BBBC2685F38F5A97EE43314BC50A0E8DD9025F49781C69 PUSH2 0x2C0 DUP3 ADD MSTORE PUSH32 0x2CB8E729808F59F455744A581761FC5CC5132D7A5EF90D5D284F0C29F7943CB0 PUSH2 0x2E0 DUP3 ADD MSTORE PUSH1 0x20 DUP2 PUSH2 0x300 DUP4 PUSH1 0x8 PUSH2 0x7D0 GAS SUB STATICCALL SWAP1 MLOAD AND SWAP7 SWAP6 POP POP POP POP POP POP JUMP JUMPDEST PUSH1 0x40 MLOAD PUSH2 0x380 DUP2 ADD PUSH1 0x40 MSTORE PUSH2 0x581 PUSH1 0x0 DUP5 ADD CALLDATALOAD PUSH2 0x5E JUMP JUMPDEST PUSH2 0x58E PUSH1 0x20 DUP5 ADD CALLDATALOAD PUSH2 0x5E JUMP JUMPDEST PUSH2 0x59B PUSH1 0x40 DUP5 ADD CALLDATALOAD PUSH2 0x5E JUMP JUMPDEST PUSH2 0x5A8 PUSH1 0x60 DUP5 ADD CALLDATALOAD PUSH2 0x5E JUMP JUMPDEST PUSH2 0x5B5 DUP2 DUP5 DUP7 DUP9 DUP11 PUSH2 0xFD JUMP JUMPDEST SWAP1 POP DUP1 PUSH1 0x0 MSTORE PUSH1 0x20 PUSH1 0x0 RETURN JUMPDEST DUP1 PUSH1 0x40 DUP2 ADD DUP4 LT ISZERO PUSH2 0x5D2 JUMPI PUSH1 0x0 DUP1 REVERT JUMPDEST SWAP3 SWAP2 POP POP JUMP JUMPDEST DUP1 PUSH1 0x80 DUP2 ADD DUP4 LT ISZERO PUSH2 0x5D2 JUMPI PUSH1 0x0 DUP1 REVERT JUMPDEST PUSH1 0x0 DUP1 PUSH1 0x0 DUP1 PUSH2 0x180 DUP6 DUP8 SUB SLT ISZERO PUSH2 0x600 JUMPI PUSH1 0x0 DUP1 REVERT JUMPDEST PUSH2 0x60A DUP7 DUP7 PUSH2 0x5C1 JUMP JUMPDEST SWAP4 POP PUSH2 0x619 DUP7 PUSH1 0x40 DUP8 ADD PUSH2 0x5D8 JUMP JUMPDEST SWAP3 POP PUSH2 0x628 DUP7 PUSH1 0xC0 DUP8 ADD PUSH2 0x5C1 JUMP JUMPDEST SWAP2 POP PUSH2 0x638 DUP7 PUSH2 0x100 DUP8 ADD PUSH2 0x5D8 JUMP JUMPDEST SWAP1 POP SWAP3 SWAP6 SWAP2 SWAP5 POP SWAP3 POP JUMP INVALID LOG2 PUSH5 0x6970667358 0x22 SLT KECCAK256 PUSH21 0x489E9E6E94F31A7F2A416A7455EBDAFE3C18010E3D BALANCE 0xD2 LOG3 PUSH0 DUP10 0xDB 0xD5 0xB8 SWAP16 0xDC PUSH5 0x736F6C6343 STOP ADDMOD EQ STOP CALLER "},"methodIdentifiers":{"verifyProof(uint256[2],uint256[2][2],uint256[2],uint256[4])":"5fe8c13b"}}}}}