{"contracts/VoterEligibility.sol":{"VoterEligibility":{"abi":[{"inputs":[{"internalType":"address","name":"_verifier","type":"address"}],"stateMutability":"nonpayable","type":"constructor"},{"anonymous":false,"inputs":[{"indexed":true,"internalType":"uint256","name":"electionId","type":"uint256"}],"name":"ElectionCreated","type":"event"},{"anonymous":false,"inputs":[{"indexed":true,"internalType":"bytes32","name":"commitment","type":"bytes32"}],"name":"EnrollmentCommitmentAdded","type":"event"},{"anonymous":false,"inputs":[{"indexed":true,"internalType":"bytes32","name":"commitment","type":"bytes32"}],"name":"EnrollmentCommitmentRevoked","type":"event"},{"anonymous":false,"inputs":[{"indexed":true,"internalType":"bytes32","name":"didHash","type":"bytes32"},{"indexed":true,"internalType":"bytes32","name":"nullifierHash","type":"bytes32"}],"name":"VoterVerified","type":"event"},{"inputs":[{"internalType":"bytes32[]","name":"_commitments","type":"bytes32[]"}],"name":"addEnrollmentCommitments","outputs":[],"stateMutability":"nonpayable","type":"function"},{"inputs":[],"name":"admin","outputs":[{"internalType":"address","name":"","type":"address"}],"stateMutability":"view","type":"function"},{"inputs":[{"internalType":"uint256","name":"_electionId","type":"uint256"}],"name":"createElection","outputs":[],"stateMutability":"nonpayable","type":"function"},{"inputs":[],"name":"currentElectionId","outputs":[{"internalType":"uint256","name":"","type":"uint256"}],"stateMutability":"view","type":"function"},{"inputs":[],"name":"eligibleVoterCount","outputs":[{"internalType":"uint256","name":"","type":"uint256"}],"stateMutability":"view","type":"function"},{"inputs":[{"internalType":"bytes32","name":"","type":"bytes32"}],"name":"eligibleVoters","outputs":[{"internalType":"bool","name":"","type":"bool"}],"stateMutability":"view","type":"function"},{"inputs":[{"internalType":"bytes32","name":"","type":"bytes32"}],"name":"enrollmentCommitments","outputs":[{"internalType":"bool","name":"","type":"bool"}],"stateMutability":"view","type":"function"},{"inputs":[{"internalType":"bytes32","name":"_didHash","type":"bytes32"}],"name":"isEligible","outputs":[{"internalType":"bool","name":"","type":"bool"}],"stateMutability":"view","type":"function"},{"inputs":[{"internalType":"bytes32","name":"_commitment","type":"bytes32"}],"name":"revokeEnrollmentCommitment","outputs":[],"stateMutability":"nonpayable","type":"function"},{"inputs":[{"internalType":"bytes32","name":"","type":"bytes32"}],"name":"usedNullifiers","outputs":[{"internalType":"bool","name":"","type":"bool"}],"stateMutability":"view","type":"function"},{"inputs":[],"name":"verifier","outputs":[{"internalType":"contract IGroth16Verifier","name":"","type":"address"}],"stateMutability":"view","type":"function"},{"inputs":[{"internalType":"uint256[2]","name":"_pA","type":"uint256[2]"},{"internalType":"uint256[2][2]","name":"_pB","type":"uint256[2][2]"},{"internalType":"uint256[2]","name":"_pC","type":"uint256[2]"},{"internalType":"uint256[3]","name":"_pubSignals","type":"uint256[3]"},{"internalType":"bytes32","name":"_didHash","type":"bytes32"}],"name":"verifyAndRegister","outputs":[],"stateMutability":"nonpayable","type":"function"}],"evm":{"bytecode":{"linkReferences":{},"object":"608060405234801561001057600080fd5b506040516109ea3803806109ea83398101604081905261002f91610062565b60008054336001600160a01b031991821617909155600180549091166001600160a01b0392909216919091179055610092565b60006020828403121561007457600080fd5b81516001600160a01b038116811461008b57600080fd5b9392505050565b610949806100a16000396000f3fe608060405234801561001057600080fd5b50600436106100b45760003560e01c8063710f11e011610071578063710f11e01461017a57806383b3749c1461019d57806398ecf2a0146101c0578063c912869d146101d7578063e538824b146101ea578063f851a440146101f357600080fd5b806302aca34d146100b9578063206137aa146100ce5780632b7ac3f3146101065780633c74e0d9146101315780635b5b30ba1461015457806370a290b614610167575b600080fd5b6100cc6100c7366004610720565b610206565b005b6100f16100dc36600461078e565b60046020526000908152604090205460ff1681565b60405190151581526020015b60405180910390f35b600154610119906001600160a01b031681565b6040516001600160a01b0390911681526020016100fd565b6100f161013f36600461078e565b60009081526005602052604090205460ff1690565b6100cc6101623660046107a7565b61050b565b6100cc61017536600461078e565b6105e0565b6100f161018836600461078e565b60036020526000908152604090205460ff1681565b6100f16101ab36600461078e565b60056020526000908152604090205460ff1681565b6101c960025481565b6040519081526020016100fd565b6100cc6101e536600461078e565b61064a565b6101c960065481565b600054610119906001600160a01b031681565b60025482359060208401359060408501359081146102775760405162461bcd60e51b815260206004820152602360248201527f566f746572456c69676962696c6974793a2077726f6e6720656c656374696f6e60448201526208125160ea1b60648201526084015b60405180910390fd5b60008381526003602052604090205460ff166102ed5760405162461bcd60e51b815260206004820152602f60248201527f566f746572456c69676962696c6974793a20756e6b6e6f776e20656e726f6c6c60448201526e1b595b9d0818dbdb5b5a5d1b595b9d608a1b606482015260840161026e565b60008281526004602052604090205460ff16156103585760405162461bcd60e51b8152602060048201526024808201527f566f746572456c69676962696c6974793a20616c726561647920726567697374604482015263195c995960e21b606482015260840161026e565b60008481526005602052604090205460ff16156103c65760405162461bcd60e51b815260206004820152602660248201527f566f746572456c69676962696c6974793a2044494420616c726561647920656c604482015265696769626c6560d01b606482015260840161026e565b6001546040516308a3cff560e11b81526000916001600160a01b0316906311479fea906103fd908c908c908c908c90600401610832565b602060405180830381865afa15801561041a573d6000803e3d6000fd5b505050506040513d601f19601f8201168201806040525081019061043e919061087e565b90508061048d5760405162461bcd60e51b815260206004820152601f60248201527f566f746572456c69676962696c6974793a20696e76616c69642070726f6f6600604482015260640161026e565b60008381526004602090815260408083208054600160ff1991821681179092558985526005909352908320805490921617905560068054916104ce836108a7565b9091555050604051839086907f25244d2324eb5bb82ef0f6bda131209bb4f004dadbbd8e870e790ae4712a11b290600090a3505050505050505050565b6000546001600160a01b031633146105355760405162461bcd60e51b815260040161026e906108ce565b60005b818110156105db576001600360008585858181106105585761055861081c565b90506020020135815260200190815260200160002060006101000a81548160ff0219169083151502179055508282828181106105965761059661081c565b905060200201357fd7449dd442b5da6ebe42086eea1b1b96bd8d29a644e7151b5ceae7fd5ae419d360405160405180910390a2806105d3816108a7565b915050610538565b505050565b6000546001600160a01b0316331461060a5760405162461bcd60e51b815260040161026e906108ce565b600081815260036020526040808220805460ff191690555182917fd007c4ed70e46e9ef62e32ca955c48ab624fcc6d329f620dbbce00d096e76c0591a250565b6000546001600160a01b031633146106745760405162461bcd60e51b815260040161026e906108ce565b600081116106d25760405162461bcd60e51b815260206004820152602560248201527f566f746572456c69676962696c6974793a20696e76616c696420656c656374696044820152641bdb88125160da1b606482015260840161026e565b60028190556000600681905560405182917fe5ada6048ea7c2d62f0279b6b2e956a1d24f57eb887465b33a580e916257a6e791a250565b806040810183101561071a57600080fd5b92915050565b6000806000806000610180868803121561073957600080fd5b6107438787610709565b945060c086018781111561075657600080fd5b6040870194506107668882610709565b93505061016086018781111561077b57600080fd5b9497939650919461010001933592915050565b6000602082840312156107a057600080fd5b5035919050565b600080602083850312156107ba57600080fd5b823567ffffffffffffffff808211156107d257600080fd5b818501915085601f8301126107e657600080fd5b8135818111156107f557600080fd5b8660208260051b850101111561080a57600080fd5b60209290920196919550909350505050565b634e487b7160e01b600052603260045260246000fd5b61016081016040808784378083018660005b600281101561086157838284379183019190830190600101610844565b505050808560c08501375060608361010084013795945050505050565b60006020828403121561089057600080fd5b815180151581146108a057600080fd5b9392505050565b6000600182016108c757634e487b7160e01b600052601160045260246000fd5b5060010190565b60208082526025908201527f566f746572456c69676962696c6974793a2063616c6c6572206973206e6f742060408201526430b236b4b760d91b60608201526080019056fea2646970667358221220b9b9fd3863777b55fbb2fcde293545b7413ce0552833ec5caa24116bc764af0464736f6c63430008140033","opcodes":"PUSH1 0x80 PUSH1 0x40 MSTORE CALLVALUE DUP1 ISZERO PUSH2 0x10 JUMPI PUSH1 0x0 DUP1 REVERT JUMPDEST POP PUSH1 0x40 MLOAD PUSH2 0x9EA CODESIZE SUB DUP1 PUSH2 0x9EA DUP4 CODECOPY DUP2 ADD PUSH1 0x40 DUP2 SWAP1 MSTORE PUSH2 0x2F SWAP2 PUSH2 0x62 JUMP JUMPDEST PUSH1 0x0 DUP1 SLOAD CALLER PUSH1 0x1 PUSH1 0x1 PUSH1 0xA0 SHL SUB NOT SWAP2 DUP3 AND OR SWAP1 SWAP2 SSTORE PUSH1 0x1 DUP1 SLOAD SWAP1 SWAP2 AND PUSH1 0x1 PUSH1 0x1 PUSH1 0xA0 SHL SUB SWAP3 SWAP1 SWAP3 AND SWAP2 SWAP1 SWAP2 OR SWAP1 SSTORE PUSH2 0x92 JUMP JUMPDEST PUSH1 0x0 PUSH1 0x20 DUP3 DUP5 SUB SLT ISZERO PUSH2 0x74 JUMPI PUSH1 0x0 DUP1 REVERT JUMPDEST DUP2 MLOAD PUSH1 0x1 PUSH1 0x1 PUSH1 0xA0 SHL SUB DUP2 AND DUP2 EQ PUSH2 0x8B JUMPI PUSH1 0x0 DUP1 REVERT JUMPDEST SWAP4 SWAP3 POP POP POP JUMP JUMPDEST PUSH2 0x949 DUP1 PUSH2 0xA1 PUSH1 0x0 CODECOPY PUSH1 0x0 RETURN INVALID PUSH1 0x80 PUSH1 0x40 MSTORE CALLVALUE DUP1 ISZERO PUSH2 0x10 JUMPI PUSH1 0x0 DUP1 REVERT JUMPDEST POP PUSH1 0x4 CALLDATASIZE LT PUSH2 0xB4 JUMPI PUSH1 0x0 CALLDATALOAD PUSH1 0xE0 SHR DUP1 PUSH4 0x710F11E0 GT PUSH2 0x71 JUMPI DUP1 PUSH4 0x710F11E0 EQ PUSH2 0x17A JUMPI DUP1 PUSH4 0x83B3749C EQ PUSH2 0x19D JUMPI DUP1 PUSH4 0x98ECF2A0 EQ PUSH2 0x1C0 JUMPI DUP1 PUSH4 0xC912869D EQ PUSH2 0x1D7 JUMPI DUP1 PUSH4 0xE538824B EQ PUSH2 0x1EA JUMPI DUP1 PUSH4 0xF851A440 EQ PUSH2 0x1F3 JUMPI PUSH1 0x0 DUP1 REVERT JUMPDEST DUP1 PUSH4 0x2ACA34D EQ PUSH2 0xB9 JUMPI DUP1 PUSH4 0x206137AA EQ PUSH2 0xCE JUMPI DUP1 PUSH4 0x2B7AC3F3 EQ PUSH2 0x106 JUMPI DUP1 PUSH4 0x3C74E0D9 EQ PUSH2 0x131 JUMPI DUP1 PUSH4 0x5B5B30BA EQ PUSH2 0x154 JUMPI DUP1 PUSH4 0x70A290B6 EQ PUSH2 0x167 JUMPI JUMPDEST PUSH1 0x0 DUP1 REVERT JUMPDEST PUSH2 0xCC PUSH2 0xC7 CALLDATASIZE PUSH1 0x4 PUSH2 0x720 JUMP JUMPDEST PUSH2 0x206 JUMP JUMPDEST STOP JUMPDEST PUSH2 0xF1 PUSH2 0xDC CALLDATASIZE PUSH1 0x4 PUSH2 0x78E JUMP JUMPDEST PUSH1 0x4 PUSH1 0x20 MSTORE PUSH1 0x0 SWAP1 DUP2 MSTORE PUSH1 0x40 SWAP1 KECCAK256 SLOAD PUSH1 0xFF AND DUP2 JUMP JUMPDEST PUSH1 0x40 MLOAD SWAP1 ISZERO ISZERO DUP2 MSTORE PUSH1 0x20 ADD JUMPDEST PUSH1 0x40 MLOAD DUP1 SWAP2 SUB SWAP1 RETURN JUMPDEST PUSH1 0x1 SLOAD PUSH2 0x119 SWAP1 PUSH1 0x1 PUSH1 0x1 PUSH1 0xA0 SHL SUB AND DUP2 JUMP JUMPDEST PUSH1 0x40 MLOAD PUSH1 0x1 PUSH1 0x1 PUSH1 0xA0 SHL SUB SWAP1 SWAP2 AND DUP2 MSTORE PUSH1 0x20 ADD PUSH2 0xFD JUMP JUMPDEST PUSH2 0xF1 PUSH2 0x13F CALLDATASIZE PUSH1 0x4 PUSH2 0x78E JUMP JUMPDEST PUSH1 0x0 SWAP1 DUP2 MSTORE PUSH1 0x5 PUSH1 0x20 MSTORE PUSH1 0x40 SWAP1 KECCAK256 SLOAD PUSH1 0xFF AND SWAP1 JUMP JUMPDEST PUSH2 0xCC PUSH2 0x162 CALLDATASIZE PUSH1 0x4 PUSH2 0x7A7 JUMP JUMPDEST PUSH2 0x50B JUMP JUMPDEST PUSH2 0xCC PUSH2 0x175 CALLDATASIZE PUSH1 0x4 PUSH2 0x78E JUMP JUMPDEST PUSH2 0x5E0 JUMP JUMPDEST PUSH2 0xF1 PUSH2 0x188 CALLDATASIZE PUSH1 0x4 PUSH2 0x78E JUMP JUMPDEST PUSH1 0x3 PUSH1 0x20 MSTORE PUSH1 0x0 SWAP1 DUP2 MSTORE PUSH1 0x40 SWAP1 KECCAK256 SLOAD PUSH1 0xFF AND DUP2 JUMP JUMPDEST PUSH2 0xF1 PUSH2 0x1AB CALLDATASIZE PUSH1 0x4 PUSH2 0x78E JUMP JUMPDEST PUSH1 0x5 PUSH1 0x20 MSTORE PUSH1 0x0 SWAP1 DUP2 MSTORE PUSH1 0x40 SWAP1 KECCAK256 SLOAD PUSH1 0xFF AND DUP2 JUMP JUMPDEST PUSH2 0x1C9 PUSH1 0x2 SLOAD DUP2 JUMP JUMPDEST PUSH1 0x40 MLOAD SWAP1 DUP2 MSTORE PUSH1 0x20 ADD PUSH2 0xFD JUMP JUMPDEST PUSH2 0xCC PUSH2 0x1E5 CALLDATASIZE PUSH1 0x4 PUSH2 0x78E JUMP JUMPDEST PUSH2 0x64A JUMP JUMPDEST PUSH2 0x1C9 PUSH1 0x6 SLOAD DUP2 JUMP JUMPDEST PUSH1 0x0 SLOAD PUSH2 0x119 SWAP1 PUSH1 0x1 PUSH1 0x1 PUSH1 0xA0 SHL SUB AND DUP2 JUMP JUMPDEST PUSH1 0x2 SLOAD DUP3 CALLDATALOAD SWAP1 PUSH1 0x20 DUP5 ADD CALLDATALOAD SWAP1 PUSH1 0x40 DUP6 ADD CALLDATALOAD SWAP1 DUP2 EQ PUSH2 0x277 JUMPI PUSH1 0x40 MLOAD PUSH3 0x461BCD PUSH1 0xE5 SHL DUP2 MSTORE PUSH1 0x20 PUSH1 0x4 DUP3 ADD MSTORE PUSH1 0x23 PUSH1 0x24 DUP3 ADD MSTORE PUSH32 0x566F746572456C69676962696C6974793A2077726F6E6720656C656374696F6E PUSH1 0x44 DUP3 ADD MSTORE PUSH3 0x81251 PUSH1 0xEA SHL PUSH1 0x64 DUP3 ADD MSTORE PUSH1 0x84 ADD JUMPDEST PUSH1 0x40 MLOAD DUP1 SWAP2 SUB SWAP1 REVERT JUMPDEST PUSH1 0x0 DUP4 DUP2 MSTORE PUSH1 0x3 PUSH1 0x20 MSTORE PUSH1 0x40 SWAP1 KECCAK256 SLOAD PUSH1 0xFF AND PUSH2 0x2ED JUMPI PUSH1 0x40 MLOAD PUSH3 0x461BCD PUSH1 0xE5 SHL DUP2 MSTORE PUSH1 0x20 PUSH1 0x4 DUP3 ADD MSTORE PUSH1 0x2F PUSH1 0x24 DUP3 ADD MSTORE PUSH32 0x566F746572456C69676962696C6974793A20756E6B6E6F776E20656E726F6C6C PUSH1 0x44 DUP3 ADD MSTORE PUSH15 0x1B595B9D0818DBDB5B5A5D1B595B9D PUSH1 0x8A SHL PUSH1 0x64 DUP3 ADD MSTORE PUSH1 0x84 ADD PUSH2 0x26E JUMP JUMPDEST PUSH1 0x0 DUP3 DUP2 MSTORE PUSH1 0x4 PUSH1 0x20 MSTORE PUSH1 0x40 SWAP1 KECCAK256 SLOAD PUSH1 0xFF AND ISZERO PUSH2 0x358 JUMPI PUSH1 0x40 MLOAD PUSH3 0x461BCD PUSH1 0xE5 SHL DUP2 MSTORE PUSH1 0x20 PUSH1 0x4 DUP3 ADD MSTORE PUSH1 0x24 DUP1 DUP3 ADD MSTORE PUSH32 0x566F746572456C69676962696C6974793A20616C726561647920726567697374 PUSH1 0x44 DUP3 ADD MSTORE PUSH4 0x195C9959 PUSH1 0xE2 SHL PUSH1 0x64 DUP3 ADD MSTORE PUSH1 0x84 ADD PUSH2 0x26E JUMP JUMPDEST PUSH1 0x0 DUP5 DUP2 MSTORE PUSH1 0x5 PUSH1 0x20 MSTORE PUSH1 0x40 SWAP1 KECCAK256 SLOAD PUSH1 0xFF AND ISZERO PUSH2 0x3C6 JUMPI PUSH1 0x40 MLOAD PUSH3 0x461BCD PUSH1 0xE5 SHL DUP2 MSTORE PUSH1 0x20 PUSH1 0x4 DUP3 ADD MSTORE PUSH1 0x26 PUSH1 0x24 DUP3 ADD MSTORE PUSH32 0x566F746572456C69676962696C6974793A2044494420616C726561647920656C PUSH1 0x44 DUP3 ADD MSTORE PUSH6 0x696769626C65 PUSH1 0xD0 SHL PUSH1 0x64 DUP3 ADD MSTORE PUSH1 0x84 ADD PUSH2 0x26E JUMP JUMPDEST PUSH1 0x1 SLOAD PUSH1 0x40 MLOAD PUSH4 0x8A3CFF5 PUSH1 0xE1 SHL DUP2 MSTORE PUSH1 0x0 SWAP2 PUSH1 0x1 PUSH1 0x1 PUSH1 0xA0 SHL SUB AND SWAP1 PUSH4 0x11479FEA SWAP1 PUSH2 0x3FD SWAP1 DUP13 SWAP1 DUP13 SWAP1 DUP13 SWAP1 DUP13 SWAP1 PUSH1 0x4 ADD PUSH2 0x832 JUMP JUMPDEST PUSH1 0x20 PUSH1 0x40 MLOAD DUP1 DUP4 SUB DUP2 DUP7 GAS STATICCALL ISZERO DUP1 ISZERO PUSH2 0x41A JUMPI RETURNDATASIZE PUSH1 0x0 DUP1 RETURNDATACOPY RETURNDATASIZE PUSH1 0x0 REVERT JUMPDEST POP POP POP POP PUSH1 0x40 MLOAD RETURNDATASIZE PUSH1 0x1F NOT PUSH1 0x1F DUP3 ADD AND DUP3 ADD DUP1 PUSH1 0x40 MSTORE POP DUP2 ADD SWAP1 PUSH2 0x43E SWAP2 SWAP1 PUSH2 0x87E JUMP JUMPDEST SWAP1 POP DUP1 PUSH2 0x48D JUMPI PUSH1 0x40 MLOAD PUSH3 0x461BCD PUSH1 0xE5 SHL DUP2 MSTORE PUSH1 0x20 PUSH1 0x4 DUP3 ADD MSTORE PUSH1 0x1F PUSH1 0x24 DUP3 ADD MSTORE PUSH32 0x566F746572456C69676962696C6974793A20696E76616C69642070726F6F6600 PUSH1 0x44 DUP3 ADD MSTORE PUSH1 0x64 ADD PUSH2 0x26E JUMP JUMPDEST PUSH1 0x0 DUP4 DUP2 MSTORE PUSH1 0x4 PUSH1 0x20 SWAP1 DUP2 MSTORE PUSH1 0x40 DUP1 DUP4 KECCAK256 DUP1 SLOAD PUSH1 0x1 PUSH1 0xFF NOT SWAP2 DUP3 AND DUP2 OR SWAP1 SWAP3 SSTORE DUP10 DUP6 MSTORE PUSH1 0x5 SWAP1 SWAP4 MSTORE SWAP1 DUP4 KECCAK256 DUP1 SLOAD SWAP1 SWAP3 AND OR SWAP1 SSTORE PUSH1 0x6 DUP1 SLOAD SWAP2 PUSH2 0x4CE DUP4 PUSH2 0x8A7 JUMP JUMPDEST SWAP1 SWAP2 SSTORE POP POP PUSH1 0x40 MLOAD DUP4 SWAP1 DUP7 SWAP1 PUSH32 0x25244D2324EB5BB82EF0F6BDA131209BB4F004DADBBD8E870E790AE4712A11B2 SWAP1 PUSH1 0x0 SWAP1 LOG3 POP POP POP POP POP POP POP POP POP JUMP JUMPDEST PUSH1 0x0 SLOAD PUSH1 0x1 PUSH1 0x1 PUSH1 0xA0 SHL SUB AND CALLER EQ PUSH2 0x535 JUMPI PUSH1 0x40 MLOAD PUSH3 0x461BCD PUSH1 0xE5 SHL DUP2 MSTORE PUSH1 0x4 ADD PUSH2 0x26E SWAP1 PUSH2 0x8CE JUMP JUMPDEST PUSH1 0x0 JUMPDEST DUP2 DUP2 LT ISZERO PUSH2 0x5DB JUMPI PUSH1 0x1 PUSH1 0x3 PUSH1 0x0 DUP6 DUP6 DUP6 DUP2 DUP2 LT PUSH2 0x558 JUMPI PUSH2 0x558 PUSH2 0x81C JUMP JUMPDEST SWAP1 POP PUSH1 0x20 MUL ADD CALLDATALOAD DUP2 MSTORE PUSH1 0x20 ADD SWAP1 DUP2 MSTORE PUSH1 0x20 ADD PUSH1 0x0 KECCAK256 PUSH1 0x0 PUSH2 0x100 EXP DUP2 SLOAD DUP2 PUSH1 0xFF MUL NOT AND SWAP1 DUP4 ISZERO ISZERO MUL OR SWAP1 SSTORE POP DUP3 DUP3 DUP3 DUP2 DUP2 LT PUSH2 0x596 JUMPI PUSH2 0x596 PUSH2 0x81C JUMP JUMPDEST SWAP1 POP PUSH1 0x20 MUL ADD CALLDATALOAD PUSH32 0xD7449DD442B5DA6EBE42086EEA1B1B96BD8D29A644E7151B5CEAE7FD5AE419D3 PUSH1 0x40 MLOAD PUSH1 0x40 MLOAD DUP1 SWAP2 SUB SWAP1 LOG2 DUP1 PUSH2 0x5D3 DUP2 PUSH2 0x8A7 JUMP JUMPDEST SWAP2 POP POP PUSH2 0x538 JUMP JUMPDEST POP POP POP JUMP JUMPDEST PUSH1 0x0 SLOAD PUSH1 0x1 PUSH1 0x1 PUSH1 0xA0 SHL SUB AND CALLER EQ PUSH2 0x60A JUMPI PUSH1 0x40 MLOAD PUSH3 0x461BCD PUSH1 0xE5 SHL DUP2 MSTORE PUSH1 0x4 ADD PUSH2 0x26E SWAP1 PUSH2 0x8CE JUMP JUMPDEST PUSH1 0x0 DUP2 DUP2 MSTORE PUSH1 0x3 PUSH1 0x20 MSTORE PUSH1 0x40 DUP1 DUP3 KECCAK256 DUP1 SLOAD PUSH1 0xFF NOT AND SWAP1 SSTORE MLOAD DUP3 SWAP2 PUSH32 0xD007C4ED70E46E9EF62E32CA955C48AB624FCC6D329F620DBBCE00D096E76C05 SWAP2 LOG2 POP JUMP JUMPDEST PUSH1 0x0 SLOAD PUSH1 0x1 PUSH1 0x1 PUSH1 0xA0 SHL SUB AND CALLER EQ PUSH2 0x674 JUMPI PUSH1 0x40 MLOAD PUSH3 0x461BCD PUSH1 0xE5 SHL DUP2 MSTORE PUSH1 0x4 ADD PUSH2 0x26E SWAP1 PUSH2 0x8CE JUMP JUMPDEST PUSH1 0x0 DUP2 GT PUSH2 0x6D2 JUMPI PUSH1 0x40 MLOAD PUSH3 0x461BCD PUSH1 0xE5 SHL DUP2 MSTORE PUSH1 0x20 PUSH1 0x4 DUP3 ADD MSTORE PUSH1 0x25 PUSH1 0x24 DUP3 ADD MSTORE PUSH32 0x566F746572456C69676962696C6974793A20696E76616C696420656C65637469 PUSH1 0x44 DUP3 ADD MSTORE PUSH5 0x1BDB881251 PUSH1 0xDA SHL PUSH1 0x64 DUP3 ADD MSTORE PUSH1 0x84 ADD PUSH2 0x26E JUMP JUMPDEST PUSH1 0x2 DUP2 SWAP1 SSTORE PUSH1 0x0 PUSH1 0x6 DUP2 SWAP1 SSTORE PUSH1 0x40 MLOAD DUP3 SWAP2 PUSH32 0xE5ADA6048EA7C2D62F0279B6B2E956A1D24F57EB887465B33A580E916257A6E7 SWAP2 LOG2 POP JUMP JUMPDEST DUP1 PUSH1 0x40 DUP2 ADD DUP4 LT ISZERO PUSH2 0x71A JUMPI PUSH1 0x0 DUP1 REVERT JUMPDEST SWAP3 SWAP2 POP POP JUMP JUMPDEST PUSH1 0x0 DUP1 PUSH1 0x0 DUP1 PUSH1 0x0 PUSH2 0x180 DUP7 DUP9 SUB SLT ISZERO PUSH2 0x739 JUMPI PUSH1 0x0 DUP1 REVERT JUMPDEST PUSH2 0x743 DUP8 DUP8 PUSH2 0x709 JUMP JUMPDEST SWAP5 POP PUSH1 0xC0 DUP7 ADD DUP8 DUP2 GT ISZERO PUSH2 0x756 JUMPI PUSH1 0x0 DUP1 REVERT JUMPDEST PUSH1 0x40 DUP8 ADD SWAP5 POP PUSH2 0x766 DUP9 DUP3 PUSH2 0x709 JUMP JUMPDEST SWAP4 POP POP PUSH2 0x160 DUP7 ADD DUP8 DUP2 GT ISZERO PUSH2 0x77B JUMPI PUSH1 0x0 DUP1 REVERT JUMPDEST SWAP5 SWAP8 SWAP4 SWAP7 POP SWAP2 SWAP5 PUSH2 0x100 ADD SWAP4 CALLDATALOAD SWAP3 SWAP2 POP POP JUMP JUMPDEST PUSH1 0x0 PUSH1 0x20 DUP3 DUP5 SUB SLT ISZERO PUSH2 0x7A0 JUMPI PUSH1 0x0 DUP1 REVERT JUMPDEST POP CALLDATALOAD SWAP2 SWAP1 POP JUMP JUMPDEST PUSH1 0x0 DUP1 PUSH1 0x20 DUP4 DUP6 SUB SLT ISZERO PUSH2 0x7BA JUMPI PUSH1 0x0 DUP1 REVERT JUMPDEST DUP3 CALLDATALOAD PUSH8 0xFFFFFFFFFFFFFFFF DUP1 DUP3 GT ISZERO PUSH2 0x7D2 JUMPI PUSH1 0x0 DUP1 REVERT JUMPDEST DUP2 DUP6 ADD SWAP2 POP DUP6 PUSH1 0x1F DUP4 ADD SLT PUSH2 0x7E6 JUMPI PUSH1 0x0 DUP1 REVERT JUMPDEST DUP2 CALLDATALOAD DUP2 DUP2 GT ISZERO PUSH2 0x7F5 JUMPI PUSH1 0x0 DUP1 REVERT JUMPDEST DUP7 PUSH1 0x20 DUP3 PUSH1 0x5 SHL DUP6 ADD ADD GT ISZERO PUSH2 0x80A JUMPI PUSH1 0x0 DUP1 REVERT JUMPDEST PUSH1 0x20 SWAP3 SWAP1 SWAP3 ADD SWAP7 SWAP2 SWAP6 POP SWAP1 SWAP4 POP POP POP POP JUMP JUMPDEST PUSH4 0x4E487B71 PUSH1 0xE0 SHL PUSH1 0x0 MSTORE PUSH1 0x32 PUSH1 0x4 MSTORE PUSH1 0x24 PUSH1 0x0 REVERT JUMPDEST PUSH2 0x160 DUP2 ADD PUSH1 0x40 DUP1 DUP8 DUP5 CALLDATACOPY DUP1 DUP4 ADD DUP7 PUSH1 0x0 JUMPDEST PUSH1 0x2 DUP2 LT ISZERO PUSH2 0x861 JUMPI DUP4 DUP3 DUP5 CALLDATACOPY SWAP2 DUP4 ADD SWAP2 SWAP1 DUP4 ADD SWAP1 PUSH1 0x1 ADD PUSH2 0x844 JUMP JUMPDEST POP POP POP DUP1 DUP6 PUSH1 0xC0 DUP6 ADD CALLDATACOPY POP PUSH1 0x60 DUP4 PUSH2 0x100 DUP5 ADD CALLDATACOPY SWAP6 SWAP5 POP POP POP POP POP JUMP JUMPDEST PUSH1 0x0 PUSH1 0x20 DUP3 DUP5 SUB SLT ISZERO PUSH2 0x890 JUMPI PUSH1 0x0 DUP1 REVERT JUMPDEST DUP2 MLOAD DUP1 ISZERO ISZERO DUP2 EQ PUSH2 0x8A0 JUMPI PUSH1 0x0 DUP1 REVERT JUMPDEST SWAP4 SWAP3 POP POP POP JUMP JUMPDEST PUSH1 0x0 PUSH1 0x1 DUP3 ADD PUSH2 0x8C7 JUMPI PUSH4 0x4E487B71 PUSH1 0xE0 SHL PUSH1 0x0 MSTORE PUSH1 0x11 PUSH1 0x4 MSTORE PUSH1 0x24 PUSH1 0x0 REVERT JUMPDEST POP PUSH1 0x1 ADD SWAP1 JUMP JUMPDEST PUSH1 0x20 DUP1 DUP3 MSTORE PUSH1 0x25 SWAP1 DUP3 ADD MSTORE PUSH32 0x566F746572456C69676962696C6974793A2063616C6C6572206973206E6F7420 PUSH1 0x40 DUP3 ADD MSTORE PUSH5 0x30B236B4B7 PUSH1 0xD9 SHL PUSH1 0x60 DUP3 ADD MSTORE PUSH1 0x80 ADD SWAP1 JUMP INVALID LOG2 PUSH5 0x6970667358 0x22 SLT KECCAK256 0xB9 0xB9 REVERT CODESIZE PUSH4 0x777B55FB 0xB2 0xFC 0xDE 0x29 CALLDATALOAD GASLIMIT 0xB7 COINBASE EXTCODECOPY 0xE0 SSTORE 0x28 CALLER 0xEC 0x5C 0xAA 0x24 GT PUSH12 0xC764AF0464736F6C63430008 EQ STOP CALLER "},"methodIdentifiers":{"addEnrollmentCommitments(bytes32[])":"5b5b30ba","admin()":"f851a440","createElection(uint256)":"c912869d","currentElectionId()":"98ecf2a0","eligibleVoterCount()":"e538824b","eligibleVoters(bytes32)":"83b3749c","enrollmentCommitments(bytes32)":"710f11e0","isEligible(bytes32)":"3c74e0d9","revokeEnrollmentCommitment(bytes32)":"70a290b6","usedNullifiers(bytes32)":"206137aa","verifier()":"2b7ac3f3","verifyAndRegister(uint256[2],uint256[2][2],uint256[2],uint256[3],bytes32)":"02aca34d"}}}}}