{
  "_format": "hh-sol-artifact-1",
  "contractName": "VotingPaymaster",
  "sourceName": "contracts/VotingPaymaster.sol",
  "abi": [
    {
      "inputs": [
        {
          "internalType": "address",
          "name": "_entryPoint",
          "type": "address"
        },
        {
          "internalType": "address",
          "name": "_votingContract",
          "type": "address"
        }
      ],
      "stateMutability": "nonpayable",
      "type": "constructor"
    },
    {
      "inputs": [
        {
          "internalType": "address",
          "name": "owner",
          "type": "address"
        }
      ],
      "name": "OwnableInvalidOwner",
      "type": "error"
    },
    {
      "inputs": [
        {
          "internalType": "address",
          "name": "account",
          "type": "address"
        }
      ],
      "name": "OwnableUnauthorizedAccount",
      "type": "error"
    },
    {
      "anonymous": false,
      "inputs": [
        {
          "indexed": true,
          "internalType": "address",
          "name": "from",
          "type": "address"
        },
        {
          "indexed": false,
          "internalType": "uint256",
          "name": "amount",
          "type": "uint256"
        }
      ],
      "name": "Deposited",
      "type": "event"
    },
    {
      "anonymous": false,
      "inputs": [
        {
          "indexed": true,
          "internalType": "address",
          "name": "sender",
          "type": "address"
        },
        {
          "indexed": false,
          "internalType": "uint256",
          "name": "gasUsed",
          "type": "uint256"
        }
      ],
      "name": "GasSponsored",
      "type": "event"
    },
    {
      "anonymous": false,
      "inputs": [
        {
          "indexed": true,
          "internalType": "address",
          "name": "previousOwner",
          "type": "address"
        },
        {
          "indexed": true,
          "internalType": "address",
          "name": "newOwner",
          "type": "address"
        }
      ],
      "name": "OwnershipTransferred",
      "type": "event"
    },
    {
      "anonymous": false,
      "inputs": [
        {
          "indexed": true,
          "internalType": "address",
          "name": "newVotingContract",
          "type": "address"
        }
      ],
      "name": "VotingContractUpdated",
      "type": "event"
    },
    {
      "inputs": [],
      "name": "deposit",
      "outputs": [],
      "stateMutability": "payable",
      "type": "function"
    },
    {
      "inputs": [],
      "name": "entryPoint",
      "outputs": [
        {
          "internalType": "contract IEntryPoint",
          "name": "",
          "type": "address"
        }
      ],
      "stateMutability": "view",
      "type": "function"
    },
    {
      "inputs": [],
      "name": "getDeposit",
      "outputs": [
        {
          "internalType": "uint256",
          "name": "",
          "type": "uint256"
        }
      ],
      "stateMutability": "view",
      "type": "function"
    },
    {
      "inputs": [],
      "name": "owner",
      "outputs": [
        {
          "internalType": "address",
          "name": "",
          "type": "address"
        }
      ],
      "stateMutability": "view",
      "type": "function"
    },
    {
      "inputs": [
        {
          "internalType": "address",
          "name": "sender",
          "type": "address"
        },
        {
          "internalType": "uint256",
          "name": "gasUsed",
          "type": "uint256"
        }
      ],
      "name": "recordSponsorship",
      "outputs": [],
      "stateMutability": "nonpayable",
      "type": "function"
    },
    {
      "inputs": [],
      "name": "renounceOwnership",
      "outputs": [],
      "stateMutability": "nonpayable",
      "type": "function"
    },
    {
      "inputs": [
        {
          "internalType": "address",
          "name": "_votingContract",
          "type": "address"
        }
      ],
      "name": "setVotingContract",
      "outputs": [],
      "stateMutability": "nonpayable",
      "type": "function"
    },
    {
      "inputs": [],
      "name": "totalGasSponsored",
      "outputs": [
        {
          "internalType": "uint256",
          "name": "",
          "type": "uint256"
        }
      ],
      "stateMutability": "view",
      "type": "function"
    },
    {
      "inputs": [],
      "name": "totalOperationsSponsored",
      "outputs": [
        {
          "internalType": "uint256",
          "name": "",
          "type": "uint256"
        }
      ],
      "stateMutability": "view",
      "type": "function"
    },
    {
      "inputs": [
        {
          "internalType": "address",
          "name": "newOwner",
          "type": "address"
        }
      ],
      "name": "transferOwnership",
      "outputs": [],
      "stateMutability": "nonpayable",
      "type": "function"
    },
    {
      "inputs": [
        {
          "components": [
            {
              "internalType": "address",
              "name": "sender",
              "type": "address"
            },
            {
              "internalType": "uint256",
              "name": "nonce",
              "type": "uint256"
            },
            {
              "internalType": "bytes",
              "name": "initCode",
              "type": "bytes"
            },
            {
              "internalType": "bytes",
              "name": "callData",
              "type": "bytes"
            },
            {
              "internalType": "uint256",
              "name": "callGasLimit",
              "type": "uint256"
            },
            {
              "internalType": "uint256",
              "name": "verificationGasLimit",
              "type": "uint256"
            },
            {
              "internalType": "uint256",
              "name": "preVerificationGas",
              "type": "uint256"
            },
            {
              "internalType": "uint256",
              "name": "maxFeePerGas",
              "type": "uint256"
            },
            {
              "internalType": "uint256",
              "name": "maxPriorityFeePerGas",
              "type": "uint256"
            },
            {
              "internalType": "bytes",
              "name": "paymasterAndData",
              "type": "bytes"
            },
            {
              "internalType": "bytes",
              "name": "signature",
              "type": "bytes"
            }
          ],
          "internalType": "struct IEntryPoint.UserOperation",
          "name": "userOp",
          "type": "tuple"
        }
      ],
      "name": "validatePaymasterUserOp",
      "outputs": [
        {
          "internalType": "bool",
          "name": "valid",
          "type": "bool"
        }
      ],
      "stateMutability": "view",
      "type": "function"
    },
    {
      "inputs": [],
      "name": "votingContract",
      "outputs": [
        {
          "internalType": "address",
          "name": "",
          "type": "address"
        }
      ],
      "stateMutability": "view",
      "type": "function"
    },
    {
      "stateMutability": "payable",
      "type": "receive"
    }
  ],
  "bytecode": "0x60a060405234801561001057600080fd5b506040516107df3803806107df83398101604081905261002f916100f3565b338061005557604051631e4fbdf760e01b81526000600482015260240160405180910390fd5b61005e81610087565b506001600160a01b03918216608052600180546001600160a01b03191691909216179055610126565b600080546001600160a01b038381166001600160a01b0319831681178455604051919092169283917f8be0079c531659141344cd1fd0a4f28419497f9722a3daafe3b4186f6b6457e09190a35050565b80516001600160a01b03811681146100ee57600080fd5b919050565b6000806040838503121561010657600080fd5b61010f836100d7565b915061011d602084016100d7565b90509250929050565b60805161069061014f600039600081816101ab0152818161036801526103fd01526106906000f3fe6080604052600436106100ab5760003560e01c8063b0d691fe11610064578063b0d691fe14610199578063c1fc006a146101cd578063c399ec88146101ed578063d0e30db014610202578063e0f6dfca1461020a578063f2fde38b1461022057600080fd5b806303ac0fdf146100b75780632eebb8d4146100ec578063715018a6146101105780637779b249146101275780638da5cb5b14610147578063a069c1ac1461017957600080fd5b366100b257005b600080fd5b3480156100c357600080fd5b506100d76100d236600461055b565b610240565b60405190151581526020015b60405180910390f35b3480156100f857600080fd5b5061010260035481565b6040519081526020016100e3565b34801561011c57600080fd5b50610125610277565b005b34801561013357600080fd5b506101256101423660046105ba565b61028b565b34801561015357600080fd5b506000546001600160a01b03165b6040516001600160a01b0390911681526020016100e3565b34801561018557600080fd5b506101256101943660046105e4565b6102fe565b3480156101a557600080fd5b506101617f000000000000000000000000000000000000000000000000000000000000000081565b3480156101d957600080fd5b50600154610161906001600160a01b031681565b3480156101f957600080fd5b50610102610350565b6101256103e0565b34801561021657600080fd5b5061010260025481565b34801561022c57600080fd5b5061012561023b3660046105e4565b61049b565b60008061025060208401846105e4565b6001600160a01b03161415801561027157506001546001600160a01b031615155b92915050565b61027f6104de565b610289600061050b565b565b806002600082825461029d9190610615565b9091555050600380549060006102b283610628565b9190505550816001600160a01b03167f2f5b7da0b8502c9a04f1c60a92a12cc859cb3cefb8951253e2f1c0df6c65d28d826040516102f291815260200190565b60405180910390a25050565b6103066104de565b600180546001600160a01b0319166001600160a01b0383169081179091556040517f264f54b893dc3babe9fb9ac8e7abcc6c1397da0903359d5fed6245242ab3ef0b90600090a250565b6040516370a0823160e01b81523060048201526000907f00000000000000000000000000000000000000000000000000000000000000006001600160a01b0316906370a0823190602401602060405180830381865afa1580156103b7573d6000803e3d6000fd5b505050506040513d601f19601f820116820180604052508101906103db9190610641565b905090565b6103e86104de565b60405163b760faf960e01b81523060048201527f00000000000000000000000000000000000000000000000000000000000000006001600160a01b03169063b760faf99034906024016000604051808303818588803b15801561044a57600080fd5b505af115801561045e573d6000803e3d6000fd5b50506040513481523393507f2da466a7b24304f47e87fa2e1e5a81b9831ce54fec19055ce277ca2f39ba42c49250602001905060405180910390a2565b6104a36104de565b6001600160a01b0381166104d257604051631e4fbdf760e01b8152600060048201526024015b60405180910390fd5b6104db8161050b565b50565b6000546001600160a01b031633146102895760405163118cdaa760e01b81523360048201526024016104c9565b600080546001600160a01b038381166001600160a01b0319831681178455604051919092169283917f8be0079c531659141344cd1fd0a4f28419497f9722a3daafe3b4186f6b6457e09190a35050565b60006020828403121561056d57600080fd5b813567ffffffffffffffff81111561058457600080fd5b8201610160818503121561059757600080fd5b9392505050565b80356001600160a01b03811681146105b557600080fd5b919050565b600080604083850312156105cd57600080fd5b6105d68361059e565b946020939093013593505050565b6000602082840312156105f657600080fd5b6105978261059e565b634e487b7160e01b600052601160045260246000fd5b80820180821115610271576102716105ff565b60006001820161063a5761063a6105ff565b5060010190565b60006020828403121561065357600080fd5b505191905056fea2646970667358221220371b99d91a415de697c8c4ba275255b8338d8e562a9376178a817d01ba87ca3f64736f6c63430008140033",
  "linkReferences": {},
  "deployedLinkReferences": {}
}