{
  "_format": "hh-sol-artifact-1",
  "contractName": "VoterEligibility",
  "sourceName": "contracts/VoterEligibility.sol",
  "abi": [
    {
      "inputs": [
        {
          "internalType": "address",
          "name": "_verifier",
          "type": "address"
        }
      ],
      "stateMutability": "nonpayable",
      "type": "constructor"
    },
    {
      "anonymous": false,
      "inputs": [
        {
          "indexed": true,
          "internalType": "uint256",
          "name": "electionId",
          "type": "uint256"
        }
      ],
      "name": "ElectionCreated",
      "type": "event"
    },
    {
      "anonymous": false,
      "inputs": [
        {
          "indexed": true,
          "internalType": "bytes32",
          "name": "commitment",
          "type": "bytes32"
        }
      ],
      "name": "EnrollmentCommitmentAdded",
      "type": "event"
    },
    {
      "anonymous": false,
      "inputs": [
        {
          "indexed": true,
          "internalType": "bytes32",
          "name": "commitment",
          "type": "bytes32"
        }
      ],
      "name": "EnrollmentCommitmentRevoked",
      "type": "event"
    },
    {
      "anonymous": false,
      "inputs": [
        {
          "indexed": true,
          "internalType": "bytes32",
          "name": "didHash",
          "type": "bytes32"
        },
        {
          "indexed": true,
          "internalType": "bytes32",
          "name": "nullifierHash",
          "type": "bytes32"
        }
      ],
      "name": "VoterVerified",
      "type": "event"
    },
    {
      "inputs": [
        {
          "internalType": "bytes32[]",
          "name": "_commitments",
          "type": "bytes32[]"
        }
      ],
      "name": "addEnrollmentCommitments",
      "outputs": [],
      "stateMutability": "nonpayable",
      "type": "function"
    },
    {
      "inputs": [],
      "name": "admin",
      "outputs": [
        {
          "internalType": "address",
          "name": "",
          "type": "address"
        }
      ],
      "stateMutability": "view",
      "type": "function"
    },
    {
      "inputs": [
        {
          "internalType": "uint256",
          "name": "_electionId",
          "type": "uint256"
        }
      ],
      "name": "createElection",
      "outputs": [],
      "stateMutability": "nonpayable",
      "type": "function"
    },
    {
      "inputs": [],
      "name": "currentElectionId",
      "outputs": [
        {
          "internalType": "uint256",
          "name": "",
          "type": "uint256"
        }
      ],
      "stateMutability": "view",
      "type": "function"
    },
    {
      "inputs": [],
      "name": "eligibleVoterCount",
      "outputs": [
        {
          "internalType": "uint256",
          "name": "",
          "type": "uint256"
        }
      ],
      "stateMutability": "view",
      "type": "function"
    },
    {
      "inputs": [
        {
          "internalType": "uint256",
          "name": "",
          "type": "uint256"
        },
        {
          "internalType": "bytes32",
          "name": "",
          "type": "bytes32"
        }
      ],
      "name": "eligibleVoters",
      "outputs": [
        {
          "internalType": "bool",
          "name": "",
          "type": "bool"
        }
      ],
      "stateMutability": "view",
      "type": "function"
    },
    {
      "inputs": [
        {
          "internalType": "bytes32",
          "name": "",
          "type": "bytes32"
        }
      ],
      "name": "enrollmentCommitments",
      "outputs": [
        {
          "internalType": "bool",
          "name": "",
          "type": "bool"
        }
      ],
      "stateMutability": "view",
      "type": "function"
    },
    {
      "inputs": [
        {
          "internalType": "uint256",
          "name": "_electionId",
          "type": "uint256"
        },
        {
          "internalType": "bytes32",
          "name": "_didHash",
          "type": "bytes32"
        }
      ],
      "name": "isEligible",
      "outputs": [
        {
          "internalType": "bool",
          "name": "",
          "type": "bool"
        }
      ],
      "stateMutability": "view",
      "type": "function"
    },
    {
      "inputs": [
        {
          "internalType": "bytes32",
          "name": "_commitment",
          "type": "bytes32"
        }
      ],
      "name": "revokeEnrollmentCommitment",
      "outputs": [],
      "stateMutability": "nonpayable",
      "type": "function"
    },
    {
      "inputs": [
        {
          "internalType": "bytes32",
          "name": "",
          "type": "bytes32"
        }
      ],
      "name": "usedNullifiers",
      "outputs": [
        {
          "internalType": "bool",
          "name": "",
          "type": "bool"
        }
      ],
      "stateMutability": "view",
      "type": "function"
    },
    {
      "inputs": [],
      "name": "verifier",
      "outputs": [
        {
          "internalType": "contract IGroth16Verifier",
          "name": "",
          "type": "address"
        }
      ],
      "stateMutability": "view",
      "type": "function"
    },
    {
      "inputs": [
        {
          "internalType": "uint256[2]",
          "name": "_pA",
          "type": "uint256[2]"
        },
        {
          "internalType": "uint256[2][2]",
          "name": "_pB",
          "type": "uint256[2][2]"
        },
        {
          "internalType": "uint256[2]",
          "name": "_pC",
          "type": "uint256[2]"
        },
        {
          "internalType": "uint256[4]",
          "name": "_pubSignals",
          "type": "uint256[4]"
        }
      ],
      "name": "verifyAndRegister",
      "outputs": [],
      "stateMutability": "nonpayable",
      "type": "function"
    }
  ],
  "bytecode": "0x608060405234801561001057600080fd5b50604051610a3b380380610a3b83398101604081905261002f91610062565b60008054336001600160a01b031991821617909155600180549091166001600160a01b0392909216919091179055610092565b60006020828403121561007457600080fd5b81516001600160a01b038116811461008b57600080fd5b9392505050565b61099a806100a16000396000f3fe608060405234801561001057600080fd5b50600436106100b45760003560e01c8063710f11e011610071578063710f11e0146101855780638a29ff5f146101a857806398ecf2a0146101bb578063c912869d146101d2578063e538824b146101e5578063f851a440146101ee57600080fd5b806304b7f9a6146100b9578063206137aa146100fc5780632b7ac3f31461011f5780634db5555b1461014a5780635b5b30ba1461015f57806370a290b614610172575b600080fd5b6100e76100c7366004610741565b600560209081526000928352604080842090915290825290205460ff1681565b60405190151581526020015b60405180910390f35b6100e761010a366004610763565b60046020526000908152604090205460ff1681565b600154610132906001600160a01b031681565b6040516001600160a01b0390911681526020016100f3565b61015d61015836600461079e565b610201565b005b61015d61016d3660046107f8565b61051f565b61015d610180366004610763565b6105f4565b6100e7610193366004610763565b60036020526000908152604090205460ff1681565b6100e76101b6366004610741565b61065e565b6101c460025481565b6040519081526020016100f3565b61015d6101e0366004610763565b610682565b6101c460065481565b600054610132906001600160a01b031681565b60025481359060208301359060408401359060608501359082146102785760405162461bcd60e51b815260206004820152602360248201527f566f746572456c69676962696c6974793a2077726f6e6720656c656374696f6e60448201526208125160ea1b60648201526084015b60405180910390fd5b60008481526003602052604090205460ff166102ee5760405162461bcd60e51b815260206004820152602f60248201527f566f746572456c69676962696c6974793a20756e6b6e6f776e20656e726f6c6c60448201526e1b595b9d0818dbdb5b5a5d1b595b9d608a1b606482015260840161026f565b60008381526004602052604090205460ff16156103595760405162461bcd60e51b8152602060048201526024808201527f566f746572456c69676962696c6974793a20616c726561647920726567697374604482015263195c995960e21b606482015260840161026f565b600082815260056020908152604080832084845290915290205460ff16156103d25760405162461bcd60e51b815260206004820152602660248201527f566f746572456c69676962696c6974793a2044494420616c726561647920656c604482015265696769626c6560d01b606482015260840161026f565b600154604051635fe8c13b60e01b81526000916001600160a01b031690635fe8c13b90610409908c908c908c908c90600401610883565b602060405180830381865afa158015610426573d6000803e3d6000fd5b505050506040513d601f19601f8201168201806040525081019061044a91906108cf565b9050806104995760405162461bcd60e51b815260206004820152601f60248201527f566f746572456c69676962696c6974793a20696e76616c69642070726f6f6600604482015260640161026f565b60008481526004602090815260408083208054600160ff19918216811790925587855260058452828520878652909352908320805490921617905560068054916104e2836108f8565b9091555050604051849083907f25244d2324eb5bb82ef0f6bda131209bb4f004dadbbd8e870e790ae4712a11b290600090a3505050505050505050565b6000546001600160a01b031633146105495760405162461bcd60e51b815260040161026f9061091f565b60005b818110156105ef5760016003600085858581811061056c5761056c61086d565b90506020020135815260200190815260200160002060006101000a81548160ff0219169083151502179055508282828181106105aa576105aa61086d565b905060200201357fd7449dd442b5da6ebe42086eea1b1b96bd8d29a644e7151b5ceae7fd5ae419d360405160405180910390a2806105e7816108f8565b91505061054c565b505050565b6000546001600160a01b0316331461061e5760405162461bcd60e51b815260040161026f9061091f565b600081815260036020526040808220805460ff191690555182917fd007c4ed70e46e9ef62e32ca955c48ab624fcc6d329f620dbbce00d096e76c0591a250565b600082815260056020908152604080832084845290915290205460ff165b92915050565b6000546001600160a01b031633146106ac5760405162461bcd60e51b815260040161026f9061091f565b6000811161070a5760405162461bcd60e51b815260206004820152602560248201527f566f746572456c69676962696c6974793a20696e76616c696420656c656374696044820152641bdb88125160da1b606482015260840161026f565b60028190556000600681905560405182917fe5ada6048ea7c2d62f0279b6b2e956a1d24f57eb887465b33a580e916257a6e791a250565b6000806040838503121561075457600080fd5b50508035926020909101359150565b60006020828403121561077557600080fd5b5035919050565b806040810183101561067c57600080fd5b806080810183101561067c57600080fd5b60008060008061018085870312156107b557600080fd5b6107bf868661077c565b93506107ce866040870161078d565b92506107dd8660c0870161077c565b91506107ed86610100870161078d565b905092959194509250565b6000806020838503121561080b57600080fd5b823567ffffffffffffffff8082111561082357600080fd5b818501915085601f83011261083757600080fd5b81358181111561084657600080fd5b8660208260051b850101111561085b57600080fd5b60209290920196919550909350505050565b634e487b7160e01b600052603260045260246000fd5b61018081016040808784378083018660005b60028110156108b257838284379183019190830190600101610895565b505050808560c08501375060808361010084013795945050505050565b6000602082840312156108e157600080fd5b815180151581146108f157600080fd5b9392505050565b60006001820161091857634e487b7160e01b600052601160045260246000fd5b5060010190565b60208082526025908201527f566f746572456c69676962696c6974793a2063616c6c6572206973206e6f742060408201526430b236b4b760d91b60608201526080019056fea26469706673582212205c98aabe5ee48ad7a8c121dcb68a90336ab9c59a6b529c8087219f4714586b7464736f6c63430008140033",
  "linkReferences": {},
  "deployedLinkReferences": {}
}