{
  "_format": "hh-sol-artifact-1",
  "contractName": "Voting",
  "sourceName": "contracts/Voting.sol",
  "abi": [
    {
      "inputs": [
        {
          "internalType": "address",
          "name": "_eligibilityContract",
          "type": "address"
        }
      ],
      "stateMutability": "nonpayable",
      "type": "constructor"
    },
    {
      "anonymous": false,
      "inputs": [
        {
          "indexed": true,
          "internalType": "uint256",
          "name": "electionId",
          "type": "uint256"
        },
        {
          "indexed": true,
          "internalType": "uint256",
          "name": "candidateId",
          "type": "uint256"
        },
        {
          "indexed": false,
          "internalType": "string",
          "name": "name",
          "type": "string"
        },
        {
          "indexed": false,
          "internalType": "string",
          "name": "party",
          "type": "string"
        },
        {
          "indexed": false,
          "internalType": "string",
          "name": "post",
          "type": "string"
        }
      ],
      "name": "CandidateAdded",
      "type": "event"
    },
    {
      "anonymous": false,
      "inputs": [
        {
          "indexed": true,
          "internalType": "uint256",
          "name": "electionId",
          "type": "uint256"
        },
        {
          "indexed": false,
          "internalType": "uint256",
          "name": "totalVotes",
          "type": "uint256"
        }
      ],
      "name": "ElectionEnded",
      "type": "event"
    },
    {
      "anonymous": false,
      "inputs": [
        {
          "indexed": true,
          "internalType": "uint256",
          "name": "electionId",
          "type": "uint256"
        },
        {
          "indexed": false,
          "internalType": "string",
          "name": "name",
          "type": "string"
        },
        {
          "indexed": false,
          "internalType": "uint256",
          "name": "startTime",
          "type": "uint256"
        },
        {
          "indexed": false,
          "internalType": "uint256",
          "name": "endTime",
          "type": "uint256"
        }
      ],
      "name": "ElectionInitialized",
      "type": "event"
    },
    {
      "anonymous": false,
      "inputs": [
        {
          "indexed": true,
          "internalType": "uint256",
          "name": "electionId",
          "type": "uint256"
        },
        {
          "indexed": true,
          "internalType": "bytes32",
          "name": "ephemeralDid",
          "type": "bytes32"
        },
        {
          "indexed": false,
          "internalType": "uint256[]",
          "name": "candidateIds",
          "type": "uint256[]"
        }
      ],
      "name": "VoteCast",
      "type": "event"
    },
    {
      "inputs": [
        {
          "internalType": "uint256",
          "name": "_candidateId",
          "type": "uint256"
        },
        {
          "internalType": "string",
          "name": "_name",
          "type": "string"
        },
        {
          "internalType": "string",
          "name": "_party",
          "type": "string"
        },
        {
          "internalType": "string",
          "name": "_post",
          "type": "string"
        }
      ],
      "name": "addCandidate",
      "outputs": [],
      "stateMutability": "nonpayable",
      "type": "function"
    },
    {
      "inputs": [],
      "name": "admin",
      "outputs": [
        {
          "internalType": "address",
          "name": "",
          "type": "address"
        }
      ],
      "stateMutability": "view",
      "type": "function"
    },
    {
      "inputs": [
        {
          "internalType": "uint256",
          "name": "",
          "type": "uint256"
        }
      ],
      "name": "candidateCount",
      "outputs": [
        {
          "internalType": "uint256",
          "name": "",
          "type": "uint256"
        }
      ],
      "stateMutability": "view",
      "type": "function"
    },
    {
      "inputs": [
        {
          "internalType": "uint256",
          "name": "",
          "type": "uint256"
        },
        {
          "internalType": "uint256",
          "name": "",
          "type": "uint256"
        }
      ],
      "name": "candidateIds",
      "outputs": [
        {
          "internalType": "uint256",
          "name": "",
          "type": "uint256"
        }
      ],
      "stateMutability": "view",
      "type": "function"
    },
    {
      "inputs": [
        {
          "internalType": "uint256",
          "name": "",
          "type": "uint256"
        },
        {
          "internalType": "uint256",
          "name": "",
          "type": "uint256"
        }
      ],
      "name": "candidates",
      "outputs": [
        {
          "internalType": "uint256",
          "name": "id",
          "type": "uint256"
        },
        {
          "internalType": "string",
          "name": "name",
          "type": "string"
        },
        {
          "internalType": "string",
          "name": "party",
          "type": "string"
        },
        {
          "internalType": "string",
          "name": "post",
          "type": "string"
        },
        {
          "internalType": "uint256",
          "name": "voteCount",
          "type": "uint256"
        },
        {
          "internalType": "bool",
          "name": "exists",
          "type": "bool"
        }
      ],
      "stateMutability": "view",
      "type": "function"
    },
    {
      "inputs": [
        {
          "internalType": "bytes32",
          "name": "_ephemeralDid",
          "type": "bytes32"
        },
        {
          "internalType": "uint256[]",
          "name": "_candidateIds",
          "type": "uint256[]"
        }
      ],
      "name": "castVote",
      "outputs": [],
      "stateMutability": "nonpayable",
      "type": "function"
    },
    {
      "inputs": [],
      "name": "electionActive",
      "outputs": [
        {
          "internalType": "bool",
          "name": "",
          "type": "bool"
        }
      ],
      "stateMutability": "view",
      "type": "function"
    },
    {
      "inputs": [],
      "name": "electionEnd",
      "outputs": [
        {
          "internalType": "uint256",
          "name": "",
          "type": "uint256"
        }
      ],
      "stateMutability": "view",
      "type": "function"
    },
    {
      "inputs": [],
      "name": "electionId",
      "outputs": [
        {
          "internalType": "uint256",
          "name": "",
          "type": "uint256"
        }
      ],
      "stateMutability": "view",
      "type": "function"
    },
    {
      "inputs": [],
      "name": "electionName",
      "outputs": [
        {
          "internalType": "string",
          "name": "",
          "type": "string"
        }
      ],
      "stateMutability": "view",
      "type": "function"
    },
    {
      "inputs": [],
      "name": "electionStart",
      "outputs": [
        {
          "internalType": "uint256",
          "name": "",
          "type": "uint256"
        }
      ],
      "stateMutability": "view",
      "type": "function"
    },
    {
      "inputs": [],
      "name": "eligibilityContract",
      "outputs": [
        {
          "internalType": "contract VoterEligibility",
          "name": "",
          "type": "address"
        }
      ],
      "stateMutability": "view",
      "type": "function"
    },
    {
      "inputs": [],
      "name": "endElection",
      "outputs": [],
      "stateMutability": "nonpayable",
      "type": "function"
    },
    {
      "inputs": [
        {
          "internalType": "uint256",
          "name": "_electionId",
          "type": "uint256"
        },
        {
          "internalType": "uint256",
          "name": "_candidateId",
          "type": "uint256"
        }
      ],
      "name": "getCandidate",
      "outputs": [
        {
          "internalType": "string",
          "name": "name",
          "type": "string"
        },
        {
          "internalType": "string",
          "name": "party",
          "type": "string"
        },
        {
          "internalType": "string",
          "name": "post",
          "type": "string"
        },
        {
          "internalType": "uint256",
          "name": "voteCount",
          "type": "uint256"
        }
      ],
      "stateMutability": "view",
      "type": "function"
    },
    {
      "inputs": [
        {
          "internalType": "uint256",
          "name": "_electionId",
          "type": "uint256"
        }
      ],
      "name": "getResults",
      "outputs": [
        {
          "internalType": "uint256[]",
          "name": "ids",
          "type": "uint256[]"
        },
        {
          "internalType": "string[]",
          "name": "names",
          "type": "string[]"
        },
        {
          "internalType": "string[]",
          "name": "parties",
          "type": "string[]"
        },
        {
          "internalType": "string[]",
          "name": "posts",
          "type": "string[]"
        },
        {
          "internalType": "uint256[]",
          "name": "voteCounts",
          "type": "uint256[]"
        }
      ],
      "stateMutability": "view",
      "type": "function"
    },
    {
      "inputs": [
        {
          "internalType": "uint256",
          "name": "",
          "type": "uint256"
        },
        {
          "internalType": "bytes32",
          "name": "",
          "type": "bytes32"
        }
      ],
      "name": "hasVoted",
      "outputs": [
        {
          "internalType": "bool",
          "name": "",
          "type": "bool"
        }
      ],
      "stateMutability": "view",
      "type": "function"
    },
    {
      "inputs": [
        {
          "internalType": "uint256",
          "name": "_electionId",
          "type": "uint256"
        },
        {
          "internalType": "bytes32",
          "name": "_didHash",
          "type": "bytes32"
        }
      ],
      "name": "hasVoterVoted",
      "outputs": [
        {
          "internalType": "bool",
          "name": "",
          "type": "bool"
        }
      ],
      "stateMutability": "view",
      "type": "function"
    },
    {
      "inputs": [
        {
          "internalType": "uint256",
          "name": "_electionId",
          "type": "uint256"
        },
        {
          "internalType": "string",
          "name": "_name",
          "type": "string"
        },
        {
          "internalType": "uint256",
          "name": "_startTime",
          "type": "uint256"
        },
        {
          "internalType": "uint256",
          "name": "_endTime",
          "type": "uint256"
        }
      ],
      "name": "initializeElection",
      "outputs": [],
      "stateMutability": "nonpayable",
      "type": "function"
    },
    {
      "inputs": [
        {
          "internalType": "uint256",
          "name": "",
          "type": "uint256"
        }
      ],
      "name": "totalVotesCast",
      "outputs": [
        {
          "internalType": "uint256",
          "name": "",
          "type": "uint256"
        }
      ],
      "stateMutability": "view",
      "type": "function"
    }
  ],
  "bytecode": "0x608060405234801561001057600080fd5b50604051611e65380380611e6583398101604081905261002f91610062565b60008054336001600160a01b031991821617909155600180549091166001600160a01b0392909216919091179055610092565b60006020828403121561007457600080fd5b81516001600160a01b038116811461008b57600080fd5b9392505050565b611dc4806100a16000396000f3fe608060405234801561001057600080fd5b50600436106101215760003560e01c80638249beda116100ad578063ce4a274311610071578063ce4a2743146102b5578063ce7ea161146102c8578063dac17d14146102d1578063f497d15f146102fc578063f851a4401461030f57600080fd5b80638249beda1461024457806385e8e7a714610257578063aa77f0c51461026c578063b1ff97c11461028c578063c1211c86146102ac57600080fd5b80636ca0f0af116100f45780636ca0f0af1461018257806374417bf4146101c05780637de14242146101ee5780637ed628bb1461021357806381a60c0d1461022057600080fd5b8063038561b514610126578063051364d41461013b5780634bd464481461015757806359f784681461017a575b600080fd5b6101396101343660046115e3565b610322565b005b61014460025481565b6040519081526020015b60405180910390f35b61016a610165366004611662565b610765565b60405161014e94939291906116ca565b6101396109bd565b6101b0610190366004611662565b600091825260086020908152604080842092845291905290205460ff1690565b604051901515815260200161014e565b6101b06101ce366004611662565b600860209081526000928352604080842090915290825290205460ff1681565b6102016101fc366004611662565b610a8b565b60405161014e96959493929190611715565b6004546101b09060ff1681565b61023361022e36600461176f565b610c67565b60405161014e95949392919061181b565b6101396102523660046118d1565b6110ac565b61025f6112ae565b60405161014e919061192f565b61014461027a36600461176f565b60096020526000908152604090205481565b61014461029a36600461176f565b60076020526000908152604090205481565b610144600a5481565b6101396102c3366004611949565b61133c565b610144600b5481565b6001546102e4906001600160a01b031681565b6040516001600160a01b03909116815260200161014e565b61014461030a366004611662565b6115b2565b6000546102e4906001600160a01b031681565b60045460ff166103795760405162461bcd60e51b815260206004820152601e60248201527f566f74696e673a20656c656374696f6e206973206e6f7420616374697665000060448201526064015b60405180910390fd5b600a544210156103cb5760405162461bcd60e51b815260206004820181905260248201527f566f74696e673a20656c656374696f6e20686173206e6f7420737461727465646044820152606401610370565b600b5442111561041d5760405162461bcd60e51b815260206004820152601a60248201527f566f74696e673a20656c656374696f6e2068617320656e6465640000000000006044820152606401610370565b600454610100900460ff16156104755760405162461bcd60e51b815260206004820152601760248201527f566f74696e673a2072652d656e7472616e742063616c6c0000000000000000006044820152606401610370565b6004805461ff001916610100178155600154600254604051638a29ff5f60e01b815292830152602482018590526001600160a01b031690638a29ff5f90604401602060405180830381865afa1580156104d2573d6000803e3d6000fd5b505050506040513d601f19601f820116820180604052508101906104f691906119ed565b6105425760405162461bcd60e51b815260206004820152601d60248201527f566f74696e673a20766f746572206973206e6f7420656c696769626c650000006044820152606401610370565b600254600090815260086020908152604080832086845290915290205460ff16156105a75760405162461bcd60e51b8152602060048201526015602482015274159bdd1a5b99ce88185b1c9958591e481d9bdd1959605a1b6044820152606401610370565b806105f45760405162461bcd60e51b815260206004820152601e60248201527f566f74696e673a206e6f2063616e646964617465732073656c656374656400006044820152606401610370565b6002805460009081526008602090815260408083208784528252808320805460ff19166001179055925482526009905290812080549161063383611a0f565b919050555060005b8181101561071757600083838381811061065757610657611a36565b60025460009081526005602081815260408084209482029690960135808452939052939020909201549192505060ff166106d35760405162461bcd60e51b815260206004820181905260248201527f566f74696e673a2063616e64696461746520646f6573206e6f742065786973746044820152606401610370565b600254600090815260056020908152604080832084845290915281206004018054916106fe83611a0f565b919050555050808061070f90611a0f565b91505061063b565b50826002547fe2c3b319a3e771590fc792a0f9a89aa1861f2a5f1cb461cdeaed1d0bfe3723d8848460405161074d929190611a4c565b60405180910390a350506004805461ff001916905550565b600082815260056020818152604080842085855290915282200154606091829182919060ff166107d75760405162461bcd60e51b815260206004820181905260248201527f566f74696e673a2063616e64696461746520646f6573206e6f742065786973746044820152606401610370565b60008681526005602090815260408083208884529091529020600481015460018201805490916002840191600385019190849061081390611a85565b80601f016020809104026020016040519081016040528092919081815260200182805461083f90611a85565b801561088c5780601f106108615761010080835404028352916020019161088c565b820191906000526020600020905b81548152906001019060200180831161086f57829003601f168201915b5050505050935082805461089f90611a85565b80601f01602080910402602001604051908101604052809291908181526020018280546108cb90611a85565b80156109185780601f106108ed57610100808354040283529160200191610918565b820191906000526020600020905b8154815290600101906020018083116108fb57829003601f168201915b5050505050925081805461092b90611a85565b80601f016020809104026020016040519081016040528092919081815260200182805461095790611a85565b80156109a45780601f10610979576101008083540402835291602001916109a4565b820191906000526020600020905b81548152906001019060200180831161098757829003601f168201915b5050505050915094509450945094505092959194509250565b6000546001600160a01b031633146109e75760405162461bcd60e51b815260040161037090611abf565b60045460ff16610a395760405162461bcd60e51b815260206004820152601a60248201527f566f74696e673a206e6f2061637469766520656c656374696f6e0000000000006044820152606401610370565b6004805460ff191690556002546000818152600960209081526040918290205491519182527f32e2c12037f9600b91a766ce53eab6909f3bdb865851cd9a8c7fafbdf249a9ce910160405180910390a2565b600560209081526000928352604080842090915290825290208054600182018054919291610ab890611a85565b80601f0160208091040260200160405190810160405280929190818152602001828054610ae490611a85565b8015610b315780601f10610b0657610100808354040283529160200191610b31565b820191906000526020600020905b815481529060010190602001808311610b1457829003601f168201915b505050505090806002018054610b4690611a85565b80601f0160208091040260200160405190810160405280929190818152602001828054610b7290611a85565b8015610bbf5780601f10610b9457610100808354040283529160200191610bbf565b820191906000526020600020905b815481529060010190602001808311610ba257829003601f168201915b505050505090806003018054610bd490611a85565b80601f0160208091040260200160405190810160405280929190818152602001828054610c0090611a85565b8015610c4d5780601f10610c2257610100808354040283529160200191610c4d565b820191906000526020600020905b815481529060010190602001808311610c3057829003601f168201915b50505050600483015460059093015491929160ff16905086565b60008181526006602052604090205460609081908190819081908067ffffffffffffffff811115610c9a57610c9a611af6565b604051908082528060200260200182016040528015610cc3578160200160208202803683370190505b5095508067ffffffffffffffff811115610cdf57610cdf611af6565b604051908082528060200260200182016040528015610d1257816020015b6060815260200190600190039081610cfd5790505b5094508067ffffffffffffffff811115610d2e57610d2e611af6565b604051908082528060200260200182016040528015610d6157816020015b6060815260200190600190039081610d4c5790505b5093508067ffffffffffffffff811115610d7d57610d7d611af6565b604051908082528060200260200182016040528015610db057816020015b6060815260200190600190039081610d9b5790505b5092508067ffffffffffffffff811115610dcc57610dcc611af6565b604051908082528060200260200182016040528015610df5578160200160208202803683370190505b50915060005b818110156110a157600088815260056020908152604080832060069092528220805483919085908110610e3057610e30611a36565b9060005260206000200154815260200190815260200160002090508060000154888381518110610e6257610e62611a36565b602002602001018181525050806001018054610e7d90611a85565b80601f0160208091040260200160405190810160405280929190818152602001828054610ea990611a85565b8015610ef65780601f10610ecb57610100808354040283529160200191610ef6565b820191906000526020600020905b815481529060010190602001808311610ed957829003601f168201915b5050505050878381518110610f0d57610f0d611a36565b6020026020010181905250806002018054610f2790611a85565b80601f0160208091040260200160405190810160405280929190818152602001828054610f5390611a85565b8015610fa05780601f10610f7557610100808354040283529160200191610fa0565b820191906000526020600020905b815481529060010190602001808311610f8357829003601f168201915b5050505050868381518110610fb757610fb7611a36565b6020026020010181905250806003018054610fd190611a85565b80601f0160208091040260200160405190810160405280929190818152602001828054610ffd90611a85565b801561104a5780601f1061101f5761010080835404028352916020019161104a565b820191906000526020600020905b81548152906001019060200180831161102d57829003601f168201915b505050505085838151811061106157611061611a36565b6020026020010181905250806004015484838151811061108357611083611a36565b6020908102919091010152508061109981611a0f565b915050610dfb565b505091939590929450565b6000546001600160a01b031633146110d65760405162461bcd60e51b815260040161037090611abf565b60045460ff16156111295760405162461bcd60e51b815260206004820152601f60248201527f566f74696e673a20656c656374696f6e20616c726561647920616374697665006044820152606401610370565b8082106111785760405162461bcd60e51b815260206004820152601b60248201527f566f74696e673a20696e76616c69642074696d652077696e646f7700000000006044820152606401610370565b600160009054906101000a90046001600160a01b03166001600160a01b03166398ecf2a06040518163ffffffff1660e01b8152600401602060405180830381865afa1580156111cb573d6000803e3d6000fd5b505050506040513d601f19601f820116820180604052508101906111ef9190611b0c565b851461123d5760405162461bcd60e51b815260206004820152601c60248201527f566f74696e673a20656c656374696f6e204944206d69736d61746368000000006044820152606401610370565b6002859055600361124f848683611b74565b50600a829055600b8190556004805460ff1916600117905560405185907fadfda3c1913464b77008b415dd13eeea720dfe799583427617c048a2e8bf680f9061129f908790879087908790611c5e565b60405180910390a25050505050565b600380546112bb90611a85565b80601f01602080910402602001604051908101604052809291908181526020018280546112e790611a85565b80156113345780601f1061130957610100808354040283529160200191611334565b820191906000526020600020905b81548152906001019060200180831161131757829003601f168201915b505050505081565b6000546001600160a01b031633146113665760405162461bcd60e51b815260040161037090611abf565b60025460009081526005602081815260408084208b8552909152909120015460ff16156113d55760405162461bcd60e51b815260206004820181905260248201527f566f74696e673a2063616e64696461746520616c7265616479206578697374736044820152606401610370565b6040518060c0016040528088815260200187878080601f016020809104026020016040519081016040528093929190818152602001838380828437600092019190915250505090825250604080516020601f880181900481028201810190925286815291810191908790879081908401838280828437600092019190915250505090825250604080516020601f86018190048102820181019092528481529181019190859085908190840183828082843760009201829052509385525050506020808301829052600160409384018190526002548352600582528383208c8452825292909120835181559083015190918201906114d29082611c85565b50604082015160028201906114e79082611c85565b50606082015160038201906114fc9082611c85565b506080820151600482015560a0909101516005909101805460ff19169115159190911790556002805460009081526006602090815260408083208054600181018255908452828420018b9055925482526007905290812080549161155f83611a0f565b9190505550866002547f5311339e5c8f602abcad009c6ae5047e68f731a4f05ebeff0a4496784128ecd38888888888886040516115a196959493929190611d45565b60405180910390a350505050505050565b600660205281600052604060002081815481106115ce57600080fd5b90600052602060002001600091509150505481565b6000806000604084860312156115f857600080fd5b83359250602084013567ffffffffffffffff8082111561161757600080fd5b818601915086601f83011261162b57600080fd5b81358181111561163a57600080fd5b8760208260051b850101111561164f57600080fd5b6020830194508093505050509250925092565b6000806040838503121561167557600080fd5b50508035926020909101359150565b6000815180845260005b818110156116aa5760208185018101518683018201520161168e565b506000602082860101526020601f19601f83011685010191505092915050565b6080815260006116dd6080830187611684565b82810360208401526116ef8187611684565b905082810360408401526117038186611684565b91505082606083015295945050505050565b86815260c06020820152600061172e60c0830188611684565b82810360408401526117408188611684565b905082810360608401526117548187611684565b6080840195909552505090151560a090910152949350505050565b60006020828403121561178157600080fd5b5035919050565b600081518084526020808501945080840160005b838110156117b85781518752958201959082019060010161179c565b509495945050505050565b600082825180855260208086019550808260051b84010181860160005b8481101561180e57601f198684030189526117fc838351611684565b988401989250908301906001016117e0565b5090979650505050505050565b60a08152600061182e60a0830188611788565b828103602084015261184081886117c3565b9050828103604084015261185481876117c3565b9050828103606084015261186881866117c3565b9050828103608084015261187c8185611788565b98975050505050505050565b60008083601f84011261189a57600080fd5b50813567ffffffffffffffff8111156118b257600080fd5b6020830191508360208285010111156118ca57600080fd5b9250929050565b6000806000806000608086880312156118e957600080fd5b85359450602086013567ffffffffffffffff81111561190757600080fd5b61191388828901611888565b9699909850959660408101359660609091013595509350505050565b6020815260006119426020830184611684565b9392505050565b60008060008060008060006080888a03121561196457600080fd5b87359650602088013567ffffffffffffffff8082111561198357600080fd5b61198f8b838c01611888565b909850965060408a01359150808211156119a857600080fd5b6119b48b838c01611888565b909650945060608a01359150808211156119cd57600080fd5b506119da8a828b01611888565b989b979a50959850939692959293505050565b6000602082840312156119ff57600080fd5b8151801515811461194257600080fd5b600060018201611a2f57634e487b7160e01b600052601160045260246000fd5b5060010190565b634e487b7160e01b600052603260045260246000fd5b6020808252810182905260006001600160fb1b03831115611a6c57600080fd5b8260051b80856040850137919091016040019392505050565b600181811c90821680611a9957607f821691505b602082108103611ab957634e487b7160e01b600052602260045260246000fd5b50919050565b6020808252601b908201527f566f74696e673a2063616c6c6572206973206e6f742061646d696e0000000000604082015260600190565b634e487b7160e01b600052604160045260246000fd5b600060208284031215611b1e57600080fd5b5051919050565b601f821115611b6f57600081815260208120601f850160051c81016020861015611b4c5750805b601f850160051c820191505b81811015611b6b57828155600101611b58565b5050505b505050565b67ffffffffffffffff831115611b8c57611b8c611af6565b611ba083611b9a8354611a85565b83611b25565b6000601f841160018114611bd45760008515611bbc5750838201355b600019600387901b1c1916600186901b178355611c2e565b600083815260209020601f19861690835b82811015611c055786850135825560209485019460019092019101611be5565b5086821015611c225760001960f88860031b161c19848701351681555b505060018560011b0183555b5050505050565b81835281816020850137506000828201602090810191909152601f909101601f19169091010190565b606081526000611c72606083018688611c35565b6020830194909452506040015292915050565b815167ffffffffffffffff811115611c9f57611c9f611af6565b611cb381611cad8454611a85565b84611b25565b602080601f831160018114611ce85760008415611cd05750858301515b600019600386901b1c1916600185901b178555611b6b565b600085815260208120601f198616915b82811015611d1757888601518255948401946001909101908401611cf8565b5085821015611d355787850151600019600388901b60f8161c191681555b5050505050600190811b01905550565b606081526000611d5960608301888a611c35565b8281036020840152611d6c818789611c35565b90508281036040840152611d81818587611c35565b999850505050505050505056fea2646970667358221220d6261760e2bec75854c2c11e85054163d064e0380685e23487e04fa26356f7ba64736f6c63430008140033",
  "linkReferences": {},
  "deployedLinkReferences": {}
}