{
  "_format": "hh-sol-artifact-1",
  "contractName": "Groth16Verifier",
  "sourceName": "contracts/Verifier.sol",
  "abi": [
    {
      "inputs": [
        {
          "internalType": "uint256[2]",
          "name": "_pA",
          "type": "uint256[2]"
        },
        {
          "internalType": "uint256[2][2]",
          "name": "_pB",
          "type": "uint256[2][2]"
        },
        {
          "internalType": "uint256[2]",
          "name": "_pC",
          "type": "uint256[2]"
        },
        {
          "internalType": "uint256[4]",
          "name": "_pubSignals",
          "type": "uint256[4]"
        }
      ],
      "name": "verifyProof",
      "outputs": [
        {
          "internalType": "bool",
          "name": "",
          "type": "bool"
        }
      ],
      "stateMutability": "view",
      "type": "function"
    }
  ],
  "bytecode": "0x608060405234801561001057600080fd5b50610679806100206000396000f3fe608060405234801561001057600080fd5b506004361061002b5760003560e01c80635fe8c13b14610030575b600080fd5b61004361003e3660046105e9565b610057565b604051901515815260200160405180910390f35b6000610569565b7f30644e72e131a029b85045b68181585d2833e84879b9709143e1f593f0000001811061008f576000805260206000f35b50565b600060405183815284602082015285604082015260408160608360076107d05a03fa9150816100c5576000805260206000f35b825160408201526020830151606082015260408360808360066107d05a03fa915050806100f6576000805260206000f35b5050505050565b7f1caf1e00e80362ccefefc6b388e6e055a559a0cc66b7e852b1034f9abc8b0c4b85527f106d7c1a04a50dade6c255649a4f96e09d0f162cfe8d6c61a2824e7fea927c6760208601526000608086018661019a87357f16f6d62f0f742d7d4daf72598ba217c4392b1890551c712ec38b66691de22ce47f1ca83c2ce0671ea5108cd247e5ff98a327c47d8bd2a8b48c88fcd33940b7ca5f84610092565b6101ea60208801357f056843e9f08639a9030d482929b576fb7b29eadc013e0b325c86f218a5dc58387f1d79b21dd9c8dfbb9e062256f80acc85d62220b15bcdd3ee9bccfdd0854f3b0384610092565b61023a60408801357f0243582520f435430fbdb8d58fed31d1819b965a09b32459df8e3cb79f1795ac7f2e4b41c1c650d3d2ff87ef2626df73b78296a68aac8a0f3e1384613ac8e2375b84610092565b61028a60608801357f1379f8f623fe05a9190d584163ddd1472ab89870045e657215548450d60084927f0874cb7852fbc3588f51ae6b3410ec9b9dc51214ef5801623bf947f55da4d7b084610092565b50823581527f30644e72e131a029b85045b68181585d97816a916871ca8d3c208c16d87cfd4760208401357f30644e72e131a029b85045b68181585d97816a916871ca8d3c208c16d87cfd4703066020820152833560408201526020840135606082015260408401356080820152606084013560a08201527f2633f96b4f3429759c7d37a56aa394eea131f39cee6f54f24b8ef3e7722dac1360c08201527f040b2607e49d3fdba5c5d870a7631eb89bf36c0222467f6de233805ee1430c9160e08201527eb3778a8856270e498219b252c4c1608c49720224166114a5b3dbf5dfb48dee6101008201527f28b803d37cdfc4621be514205b915f4f9faa5f15c007629e9e61736cb4d9f6266101208201527f07e257cfc5126b84263cf068e9cb32cd48c1c47ec3f7678fa17343208881e3fa6101408201527f12e42bc3de0be3beb67e52805baf7224ccc8f626976f1080656826ddada00556610160820152600087015161018082015260206000018701516101a08201527f198e9393920d483a7260bfb731fb5d25f1aa493335a9e71297e485b7aef312c26101c08201527f1800deef121f1e76426a00665e5c4479674322d4f75edadd46debd5cd992f6ed6101e08201527f090689d0585ff075ec9e99ad690c3395bc4b313370b38ef355acdadcd122975b6102008201527f12c85ea5db8c6deb4aab71808dcb408fe3d1e7690c43d37b4ce6cc0166fa7daa610220820152843561024082015260208501356102608201527f0263610046274ed09344fccfafd97cce26ce42fb08ab38792aa4b0934cb3aff06102808201527f1379e263876ac6041a8af8e7aa2795bba4212ced733efd37c61c2c7a86a71fe06102a08201527f2fbbf10aeec49a28f4bbbc2685f38f5a97ee43314bc50a0e8dd9025f49781c696102c08201527f2cb8e729808f59f455744a581761fc5cc5132d7a5ef90d5d284f0c29f7943cb06102e08201526020816103008360086107d05a03fa9051169695505050505050565b6040516103808101604052610581600084013561005e565b61058e602084013561005e565b61059b604084013561005e565b6105a8606084013561005e565b6105b5818486888a6100fd565b90508060005260206000f35b80604081018310156105d257600080fd5b92915050565b80608081018310156105d257600080fd5b600080600080610180858703121561060057600080fd5b61060a86866105c1565b935061061986604087016105d8565b92506106288660c087016105c1565b91506106388661010087016105d8565b90509295919450925056fea264697066735822122074489e9e6e94f31a7f2a416a7455ebdafe3c18010e3d31d2a35f89dbd5b89fdc64736f6c63430008140033",
  "linkReferences": {},
  "deployedLinkReferences": {}
}