{
  "_format": "hh-sol-artifact-1",
  "contractName": "SmartAccountFactory",
  "sourceName": "contracts/SmartAccount.sol",
  "abi": [
    {
      "anonymous": false,
      "inputs": [
        {
          "indexed": true,
          "internalType": "bytes32",
          "name": "didHash",
          "type": "bytes32"
        },
        {
          "indexed": true,
          "internalType": "address",
          "name": "account",
          "type": "address"
        }
      ],
      "name": "AccountCreated",
      "type": "event"
    },
    {
      "inputs": [],
      "name": "accountCount",
      "outputs": [
        {
          "internalType": "uint256",
          "name": "",
          "type": "uint256"
        }
      ],
      "stateMutability": "view",
      "type": "function"
    },
    {
      "inputs": [
        {
          "internalType": "bytes32",
          "name": "",
          "type": "bytes32"
        }
      ],
      "name": "accounts",
      "outputs": [
        {
          "internalType": "address",
          "name": "",
          "type": "address"
        }
      ],
      "stateMutability": "view",
      "type": "function"
    },
    {
      "inputs": [
        {
          "internalType": "bytes32",
          "name": "_didHash",
          "type": "bytes32"
        }
      ],
      "name": "computeAddress",
      "outputs": [
        {
          "internalType": "address",
          "name": "",
          "type": "address"
        }
      ],
      "stateMutability": "view",
      "type": "function"
    },
    {
      "inputs": [
        {
          "internalType": "bytes32",
          "name": "_didHash",
          "type": "bytes32"
        },
        {
          "internalType": "address",
          "name": "_owner",
          "type": "address"
        }
      ],
      "name": "getOrCreateAccount",
      "outputs": [
        {
          "internalType": "address",
          "name": "account",
          "type": "address"
        }
      ],
      "stateMutability": "nonpayable",
      "type": "function"
    }
  ],
  "bytecode": "0x608060405234801561001057600080fd5b506109ef806100206000396000f3fe608060405234801561001057600080fd5b506004361061004c5760003560e01c80634563ded5146100515780637fde56da14610081578063bc529c4314610094578063e4af29fc146100bd575b600080fd5b61006461005f3660046102bb565b6100d4565b6040516001600160a01b0390911681526020015b60405180910390f35b61006461008f3660046102f7565b610225565b6100646100a23660046102f7565b6000602081905290815260409020546001600160a01b031681565b6100c660015481565b604051908152602001610078565b6000828152602081905260408120546001600160a01b03161561010f57506000828152602081905260409020546001600160a01b031661021f565b6000839050600081604051610123906102ae565b8190604051809103906000f5905080158015610143573d6000803e3d6000fd5b50604051631a4438cd60e21b8152600481018790526001600160a01b03868116602483015291925090821690636910e33490604401600060405180830381600087803b15801561019257600080fd5b505af11580156101a6573d6000803e3d6000fd5b505050600086815260208190526040812080546001600160a01b0319166001600160a01b038516179055600180549250906101e083610310565b90915550506040516001600160a01b0382169086907fd61caa23c7e60d69f689a83965592bc26f0dee75c1e247864bb07bbb6fdafe4790600090a39150505b92915050565b6040516000908290829061023b602082016102ae565b601f1982820381018352601f90910116604081815282516020938401206001600160f81b0319848401526bffffffffffffffffffffffff193060601b1660218401526035830195909552605580830195909552805180830390950185526075909101905282519201919091209392505050565b6106828061033883390190565b600080604083850312156102ce57600080fd5b8235915060208301356001600160a01b03811681146102ec57600080fd5b809150509250929050565b60006020828403121561030957600080fd5b5035919050565b60006001820161033057634e487b7160e01b600052601160045260246000fd5b506001019056fe608060405234801561001057600080fd5b50338061003757604051631e4fbdf760e01b81526000600482015260240160405180910390fd5b61004081610046565b50610096565b600080546001600160a01b038381166001600160a01b0319831681178455604051919092169283917f8be0079c531659141344cd1fd0a4f28419497f9722a3daafe3b4186f6b6457e09190a35050565b6105dd806100a56000396000f3fe6080604052600436106100745760003560e01c806382ca8b551161004e57806382ca8b55146100e65780638da5cb5b1461010a578063b61d27f614610132578063f2fde38b1461015f57600080fd5b8063158ef93e146100805780636910e334146100af578063715018a6146100d157600080fd5b3661007b57005b600080fd5b34801561008c57600080fd5b5060025461009a9060ff1681565b60405190151581526020015b60405180910390f35b3480156100bb57600080fd5b506100cf6100ca36600461043e565b61017f565b005b3480156100dd57600080fd5b506100cf61023c565b3480156100f257600080fd5b506100fc60015481565b6040519081526020016100a6565b34801561011657600080fd5b506000546040516001600160a01b0390911681526020016100a6565b34801561013e57600080fd5b5061015261014d36600461046a565b610250565b6040516100a691906104f1565b34801561016b57600080fd5b506100cf61017a36600461053f565b610367565b60025460ff16156101e65760405162461bcd60e51b815260206004820152602660248201527f566f746572536d6172744163636f756e743a20616c726561647920696e697469604482015265185b1a5e995960d21b60648201526084015b60405180910390fd5b6002805460ff19166001908117909155829055610202816103a5565b6040516001600160a01b0382169083907fdfb5858fd59046e3fa3e79c51b71f7a99f504b35e1ab83b02b02592e1448e3ee90600090a35050565b6102446103f5565b61024e60006103a5565b565b606061025a6103f5565b600080866001600160a01b0316868686604051610278929190610561565b60006040518083038185875af1925050503d80600081146102b5576040519150601f19603f3d011682016040523d82523d6000602084013e6102ba565b606091505b5091509150816103185760405162461bcd60e51b815260206004820152602360248201527f566f746572536d6172744163636f756e743a20657865637574696f6e206661696044820152621b195960ea1b60648201526084016101dd565b866001600160a01b03167fcaf938de11c367272220bfd1d2baa99ca46665e7bc4d85f00adb51b90fe1fa9f87878760405161035593929190610571565b60405180910390a29695505050505050565b61036f6103f5565b6001600160a01b03811661039957604051631e4fbdf760e01b8152600060048201526024016101dd565b6103a2816103a5565b50565b600080546001600160a01b038381166001600160a01b0319831681178455604051919092169283917f8be0079c531659141344cd1fd0a4f28419497f9722a3daafe3b4186f6b6457e09190a35050565b6000546001600160a01b0316331461024e5760405163118cdaa760e01b81523360048201526024016101dd565b80356001600160a01b038116811461043957600080fd5b919050565b6000806040838503121561045157600080fd5b8235915061046160208401610422565b90509250929050565b6000806000806060858703121561048057600080fd5b61048985610422565b935060208501359250604085013567ffffffffffffffff808211156104ad57600080fd5b818701915087601f8301126104c157600080fd5b8135818111156104d057600080fd5b8860208285010111156104e257600080fd5b95989497505060200194505050565b600060208083528351808285015260005b8181101561051e57858101830151858201604001528201610502565b506000604082860101526040601f19601f8301168501019250505092915050565b60006020828403121561055157600080fd5b61055a82610422565b9392505050565b8183823760009101908152919050565b83815260406020820152816040820152818360608301376000818301606090810191909152601f909201601f191601019291505056fea2646970667358221220bcff0b8b15b3f495b5c1cb706f4a0d8bc7bdfbad61c3d466ecf14d003a75a18964736f6c63430008140033a26469706673582212200e7a873eb3b3860be359b37ca19a16d93cb37b7e5b746710813ffeea5ef813fe64736f6c63430008140033",
  "linkReferences": {},
  "deployedLinkReferences": {}
}