{
  "_format": "hh-sol-artifact-1",
  "contractName": "VoterSmartAccount",
  "sourceName": "contracts/SmartAccount.sol",
  "abi": [
    {
      "inputs": [],
      "stateMutability": "nonpayable",
      "type": "constructor"
    },
    {
      "inputs": [
        {
          "internalType": "address",
          "name": "owner",
          "type": "address"
        }
      ],
      "name": "OwnableInvalidOwner",
      "type": "error"
    },
    {
      "inputs": [
        {
          "internalType": "address",
          "name": "account",
          "type": "address"
        }
      ],
      "name": "OwnableUnauthorizedAccount",
      "type": "error"
    },
    {
      "anonymous": false,
      "inputs": [
        {
          "indexed": true,
          "internalType": "bytes32",
          "name": "didHash",
          "type": "bytes32"
        },
        {
          "indexed": true,
          "internalType": "address",
          "name": "owner",
          "type": "address"
        }
      ],
      "name": "AccountInitialized",
      "type": "event"
    },
    {
      "anonymous": false,
      "inputs": [
        {
          "indexed": true,
          "internalType": "address",
          "name": "target",
          "type": "address"
        },
        {
          "indexed": false,
          "internalType": "uint256",
          "name": "value",
          "type": "uint256"
        },
        {
          "indexed": false,
          "internalType": "bytes",
          "name": "data",
          "type": "bytes"
        }
      ],
      "name": "Executed",
      "type": "event"
    },
    {
      "anonymous": false,
      "inputs": [
        {
          "indexed": true,
          "internalType": "address",
          "name": "previousOwner",
          "type": "address"
        },
        {
          "indexed": true,
          "internalType": "address",
          "name": "newOwner",
          "type": "address"
        }
      ],
      "name": "OwnershipTransferred",
      "type": "event"
    },
    {
      "inputs": [],
      "name": "didHash",
      "outputs": [
        {
          "internalType": "bytes32",
          "name": "",
          "type": "bytes32"
        }
      ],
      "stateMutability": "view",
      "type": "function"
    },
    {
      "inputs": [
        {
          "internalType": "address",
          "name": "target",
          "type": "address"
        },
        {
          "internalType": "uint256",
          "name": "value",
          "type": "uint256"
        },
        {
          "internalType": "bytes",
          "name": "data",
          "type": "bytes"
        }
      ],
      "name": "execute",
      "outputs": [
        {
          "internalType": "bytes",
          "name": "",
          "type": "bytes"
        }
      ],
      "stateMutability": "nonpayable",
      "type": "function"
    },
    {
      "inputs": [
        {
          "internalType": "bytes32",
          "name": "_didHash",
          "type": "bytes32"
        },
        {
          "internalType": "address",
          "name": "_owner",
          "type": "address"
        }
      ],
      "name": "initialize",
      "outputs": [],
      "stateMutability": "nonpayable",
      "type": "function"
    },
    {
      "inputs": [],
      "name": "initialized",
      "outputs": [
        {
          "internalType": "bool",
          "name": "",
          "type": "bool"
        }
      ],
      "stateMutability": "view",
      "type": "function"
    },
    {
      "inputs": [],
      "name": "owner",
      "outputs": [
        {
          "internalType": "address",
          "name": "",
          "type": "address"
        }
      ],
      "stateMutability": "view",
      "type": "function"
    },
    {
      "inputs": [],
      "name": "renounceOwnership",
      "outputs": [],
      "stateMutability": "nonpayable",
      "type": "function"
    },
    {
      "inputs": [
        {
          "internalType": "address",
          "name": "newOwner",
          "type": "address"
        }
      ],
      "name": "transferOwnership",
      "outputs": [],
      "stateMutability": "nonpayable",
      "type": "function"
    },
    {
      "stateMutability": "payable",
      "type": "receive"
    }
  ],
  "bytecode": "0x608060405234801561001057600080fd5b50338061003757604051631e4fbdf760e01b81526000600482015260240160405180910390fd5b61004081610046565b50610096565b600080546001600160a01b038381166001600160a01b0319831681178455604051919092169283917f8be0079c531659141344cd1fd0a4f28419497f9722a3daafe3b4186f6b6457e09190a35050565b6105dd806100a56000396000f3fe6080604052600436106100745760003560e01c806382ca8b551161004e57806382ca8b55146100e65780638da5cb5b1461010a578063b61d27f614610132578063f2fde38b1461015f57600080fd5b8063158ef93e146100805780636910e334146100af578063715018a6146100d157600080fd5b3661007b57005b600080fd5b34801561008c57600080fd5b5060025461009a9060ff1681565b60405190151581526020015b60405180910390f35b3480156100bb57600080fd5b506100cf6100ca36600461043e565b61017f565b005b3480156100dd57600080fd5b506100cf61023c565b3480156100f257600080fd5b506100fc60015481565b6040519081526020016100a6565b34801561011657600080fd5b506000546040516001600160a01b0390911681526020016100a6565b34801561013e57600080fd5b5061015261014d36600461046a565b610250565b6040516100a691906104f1565b34801561016b57600080fd5b506100cf61017a36600461053f565b610367565b60025460ff16156101e65760405162461bcd60e51b815260206004820152602660248201527f566f746572536d6172744163636f756e743a20616c726561647920696e697469604482015265185b1a5e995960d21b60648201526084015b60405180910390fd5b6002805460ff19166001908117909155829055610202816103a5565b6040516001600160a01b0382169083907fdfb5858fd59046e3fa3e79c51b71f7a99f504b35e1ab83b02b02592e1448e3ee90600090a35050565b6102446103f5565b61024e60006103a5565b565b606061025a6103f5565b600080866001600160a01b0316868686604051610278929190610561565b60006040518083038185875af1925050503d80600081146102b5576040519150601f19603f3d011682016040523d82523d6000602084013e6102ba565b606091505b5091509150816103185760405162461bcd60e51b815260206004820152602360248201527f566f746572536d6172744163636f756e743a20657865637574696f6e206661696044820152621b195960ea1b60648201526084016101dd565b866001600160a01b03167fcaf938de11c367272220bfd1d2baa99ca46665e7bc4d85f00adb51b90fe1fa9f87878760405161035593929190610571565b60405180910390a29695505050505050565b61036f6103f5565b6001600160a01b03811661039957604051631e4fbdf760e01b8152600060048201526024016101dd565b6103a2816103a5565b50565b600080546001600160a01b038381166001600160a01b0319831681178455604051919092169283917f8be0079c531659141344cd1fd0a4f28419497f9722a3daafe3b4186f6b6457e09190a35050565b6000546001600160a01b0316331461024e5760405163118cdaa760e01b81523360048201526024016101dd565b80356001600160a01b038116811461043957600080fd5b919050565b6000806040838503121561045157600080fd5b8235915061046160208401610422565b90509250929050565b6000806000806060858703121561048057600080fd5b61048985610422565b935060208501359250604085013567ffffffffffffffff808211156104ad57600080fd5b818701915087601f8301126104c157600080fd5b8135818111156104d057600080fd5b8860208285010111156104e257600080fd5b95989497505060200194505050565b600060208083528351808285015260005b8181101561051e57858101830151858201604001528201610502565b506000604082860101526040601f19601f8301168501019250505092915050565b60006020828403121561055157600080fd5b61055a82610422565b9392505050565b8183823760009101908152919050565b83815260406020820152816040820152818360608301376000818301606090810191909152601f909201601f191601019291505056fea2646970667358221220bcff0b8b15b3f495b5c1cb706f4a0d8bc7bdfbad61c3d466ecf14d003a75a18964736f6c63430008140033",
  "linkReferences": {},
  "deployedLinkReferences": {}
}